:020000040800F2
:1000000000280020F916000849170008790900089F
:100010007F090008850900088B090008000000001E
:10002000000000000000000000000000910900082E
:10003000491700080000000005100008A509000885
:100040004917000849170008491700084917000810
:10005000491700084917000885010008A901000890
:10006000CD010008F1010008150200084917000839
:1000700049170008491700084917000849170008E0
:1000800049170008491700084917000849170008D0
:1000900049170008491700084917000839020008E5
:1000A00049170008491700084917000849170008B0
:1000B00089030008ED030008450400089D040008BA
:1000C0009505000889060008850700087D080008D6
:1000D00091080008A5080008B9080008CD08000824
:1000E000E102000849170008000000004917000855
:1000F0004917000849170008491700084917000860
:10010000491700084917000849170008491700084F
:10011000491700084917000849170008491700083F
:10012000491700084917000849170008491700082F
:1001300010B5054C237833B9044B13B10448AFF321
:1001400000800123237010BD00000020000000008B
:100150009417000808B5034B1BB103490348AFF3DC
:10016000008008BD00000000040000209417000873
:1001700010F8012B11F8013B012A28BF9A42F7D051
:10018000D01A704780B500AF054B5B69044A43F055
:1001900001035361034B1B68984700BF80BD00BF3C
:1001A000000401401C00002080B500AF054B5B69D6
:1001B000044A43F002035361034B5B68984700BF56
:1001C00080BD00BF000401401C00002080B500AFCE
:1001D000054B5B69044A43F004035361034B9B687E
:1001E000984700BF80BD00BF000401401C000020F4
:1001F00080B500AF054B5B69044A43F008035361C7
:10020000034BDB68984700BF80BD00BF000401407E
:100210001C00002080B500AF054B5B69044A43F029
:1002200010035361034B1B69984700BF80BD00BF9B
:10023000000401401C00002080B500AF264B5B6924
:1002400003F02003002B08D0234B5B69224A43F0C4
:1002500020035361214B5B6998471F4B5B6903F097
:100260004003002B08D01C4B5B691B4A43F0400342
:1002700053611A4B9B699847174B5B6903F08003E6
:10028000002B08D0144B5B69134A43F08003536181
:10029000124BDB699847104B5B6903F48073002BAA
:1002A00008D00D4B5B690C4A43F4807353610B4BD0
:1002B0001B6A9847084B5B6903F40073002B08D056
:1002C000054B5B69044A43F400735361034B5B6A5B
:1002D000984700BF80BD00BF000401401C00002003
:1002E00080B500AF264B5B6903F48063002B08D018
:1002F000234B5B69224A43F480635361214B9B6A21
:1003000098471F4B5B6903F40063002B08D01C4B1C
:100310005B691B4A43F4006353611A4BDB6A9847DD
:10032000174B5B6903F48053002B08D0144B5B69B7
:10033000134A43F480535361124B1B6B9847104B85
:100340005B6903F40053002B08D00D4B5B690C4A2A
:1003500043F4005353610B4B5B6B9847084B5B694D
:1003600003F48043002B08D0054B5B69044A43F437
:1003700080435361034B9B6B984700BF80BD00BF18
:10038000000401401C00002080B500AF4FF0804306
:100390001B6903F00103002B12D04FF080431B6850
:1003A0004FF0804223F0010313604FF080431B693C
:1003B0004FF0804223F0010313610B4B1B689847F9
:1003C0004FF080431B6903F04003002B0AD04FF02D
:1003D00080431B694FF0804223F040031361024BBE
:1003E0001B68984700BF80BD5800002080B500AF53
:1003F000124B1B6903F00103002B0ED00F4B1B683F
:100400000E4A23F0010313600C4B1B690B4A23F0C7
:10041000010313610A4B5B689847084B1B6903F0A3
:100420004003002B08D0054B1B69044A23F040030E
:100430001361034B5B68984700BF80BD0004004018
:100440005800002080B500AF124B1B6903F0010378
:10045000002B0ED00F4B1B680E4A23F001031360D4
:100460000C4B1B690B4A23F0010313610A4B9B6879
:100470009847084B1B6903F04003002B08D0054B3D
:100480001B69044A23F040031361034B9B689847A0
:1004900000BF80BD000800405800002080B584B037
:1004A00000AF00233B60394B5B6803F40073FB60D3
:1004B000364B5B6803F48063BB60344B5B6903F0CD
:1004C00004037B60FB68002B0AD07B68002B07D0FD
:1004D0002E4B2E4A1B6813602D4B1B680420984737
:1004E0002A4B5B6903F001037B60FB68002B0CD097
:1004F0007B68002B09D0254B9B6903F48033002BCC
:1005000003D1234B1B6801209847204B5B6903F004
:1005100007037B60FB68002B15D0BB68002B12D053
:100520007B68002B0FD0194B9B6903F48033002BA1
:1005300009D1164B9B6903F48023002B03D0144B85
:100540001B6806209847114B5B6903F006037B602C
:10055000FB68002B15D0BB68002B12D07B68002BEA
:100560000FD00A4B9B6903F48033002B09D1074B52
:100570009B6903F48023002B03D0054B1B680520E7
:1005800098473B6800BF1037BD4680BD005400400F
:100590006400002080B582B000AF394B5B6803F483
:1005A00080737B60364B5B6903F001033B603B6803
:1005B000002B0CD07B68002B09D0314B5B69304A93
:1005C00023F4807353612F4B1B68002098472C4BFA
:1005D0005B6903F002033B603B68002B0CD07B6837
:1005E000002B09D0264B5B69254A23F40073536125
:1005F000244B1B6801209847214B5B6903F00403DF
:100600003B603B68002B0CD07B68002B09D01C4B57
:100610005B691B4A23F4806353611A4B1B680220F9
:100620009847174B5B6903F008033B603B68002B5E
:100630000CD07B68002B09D0114B5B69104A23F466
:10064000006353610F4B1B68032098470C4B5B6999
:1006500003F020033B603B68002B0CD07B68002B31
:1006600009D0074B5B69064A23F480435361054B6D
:100670001B680520984700BF0837BD4680BD00BFF6
:10068000005400406C00002080B584B000AF00230F
:100690003B60394B5B6803F40073FB60364B5B686F
:1006A00003F48063BB60344B5B6903F004037B603D
:1006B000FB68002B0AD07B68002B07D02E4B2E4AFC
:1006C0001B6813602D4B1B68042098472A4B5B69FD
:1006D00003F001037B60FB68002B0CD07B68002BD0
:1006E00009D0254B9B6903F48033002B03D1234BA6
:1006F0001B6801209847204B5B6903F007037B6070
:10070000FB68002B15D0BB68002B12D07B68002B38
:100710000FD0194B9B6903F48033002B09D1164B82
:100720009B6903F48023002B03D0144B1B68062025
:100730009847114B5B6903F006037B60FB68002B55
:1007400015D0BB68002B12D07B68002B0FD00C4B50
:100750009B6903F48033002B09D1074B9B6903F499
:100760008023002B03D0054B1B68052098473B686E
:1007700000BF1037BD4680BD005800406800002013
:100780000054004080B582B000AF394B5B6803F481
:1007900080737B60364B5B6903F001033B603B6811
:1007A000002B0CD07B68002B09D0314B5B69304AA1
:1007B00023F4807353612F4B1B68002098472C4B08
:1007C0005B6903F002033B603B68002B0CD07B6845
:1007D000002B09D0264B5B69254A23F40073536133
:1007E000244B1B6801209847214B5B6903F00403ED
:1007F0003B603B68002B0CD07B68002B09D01E4B64
:100800009B691D4A23F4806393611A4B1B68022085
:100810009847174B5B6903F008033B603B68002B6C
:100820000CD07B68002B09D0114B5B69104A23F474
:10083000006353610F4B1B68032098470C4B5B69A7
:1008400003F020033B603B68002B0CD07B68002B3F
:1008500009D0074B5B69064A23F480435361054B7B
:100860001B680520984700BF0837BD4680BD00BF04
:1008700000580040700000200054004080B500AFD8
:10088000024B1B68984700BF80BD00BF740000206A
:1008900080B500AF024B5B68984700BF80BD00BFCA
:1008A0007400002080B500AF024B1B68984700BF62
:1008B00080BD00BF7C00002080B500AF024B5B68AC
:1008C000984700BF80BD00BF7C00002080B500AF0E
:1008D000024B9B68984700BF80BD00BF7C00002092
:1008E00080B483B000AF03463960FB7197F90730DD
:1008F000002B0ADB3B68DAB20C4997F9073052014A
:10090000D2B20B4483F800230AE03B68DAB208490C
:10091000FB7903F00F03043B5201D2B20B441A7669
:1009200000BF0C37BD4680BC704700BF00E100E04F
:1009300000ED00E080B582B000AF78607B68013BDD
:10094000B3F1807F01D301230FE00A4A7B68013BAA
:10095000536007214FF0FF30FFF7C2FF054B002225
:100960009A60044B07221A60002318460837BD46D8
:1009700080BD00BF10E000E080B400AFFEE780B4AF
:1009800000AFFEE780B400AFFEE780B400AFFEE743
:100990001EF0040F0CBFEFF30880EFF3098000F0A6
:1009A00021BA00BF80B500AF064B1B7883F001036E
:1009B000DAB2044B1A7000F0D3FA00F0DFFA00BF8D
:1009C00080BD00BF9800002080B500AF0F216FF000
:1009D0000100FFF785FF00BF80BD80B500AF4FF479
:1009E000FA50FFF7A7FF00BF80BD80B485B000AF0D
:1009F000F860B9607A60BB68002B01D103230FE077
:100A0000FB68BA689A60FB68BA68DA60FB68BA6823
:100A10001A61FB687A681A60FB6800225A60022338
:100A200018461437BD4680BC704780B483B000AF11
:100A300078607B681B69002B07D07B689B68002B64
:100A400003D07B68DB68002B01D1032300E0022385
:100A500018460C37BD4680BC704780B582B000AFE9
:100A600078607868FFF7E1FF0346032B01D1032389
:100A700008E07B685A687B681B689A4201D10123B1
:100A800000E0022318460837BD4680BD80B582B01D
:100A900000AF78607868FFF7C8FF0346032B01D1E9
:100AA000032306E07B685B68002B01D1002300E094
:100AB000022318460837BD4680BD80B582B000AF1E
:100AC000786039607868FFF7B0FF0346032B01D1E7
:100AD000032328E07868FFF7C0FF0346012B01D10C
:100AE000012320E07B681B693A681A607B681A69F9
:100AF0007B6899687B681B6803F18043013B9B001E
:100B00000B449A4204D17B689A687B681A6104E0BE
:100B10007B681B691A1D7B681A617B685B685A1CBD
:100B20007B685A60022318460837BD4680BD80B5F1
:100B300082B000AF786039607868FFF776FF0346CF
:100B4000032B01D1032329E07868FFF79FFF0346B9
:100B5000002B01D1002321E07B68DB681A683B6829
:100B60001A607B68DA687B6899687B681B6803F1A8
:100B70008043013B9B000B449A4204D17B689A68F6
:100B80007B68DA6004E07B68DB681A1D7B68DA60EA
:100B90007B685B685A1E7B685A60022318460837D8
:100BA000BD4680BD80B400AF044B1B7883F00103C9
:100BB000DAB2024B1A7020BFF6E700BF2C04002007
:100BC00080B485B000AF0023FB6039E00123FB72E5
:100BD00000237B6025E0214A7B6852F823301A7994
:100BE0007B6801331D4951F823301B799A4215D98E
:100BF0000023FB72194A7B6852F823303B607B6804
:100C00000133164A52F8232014497B6841F8232007
:100C10007B68013311493A6841F823207B6801332E
:100C20007B600E4BD3F89C21FB68D31A5A1E7B685D
:100C30009A42D0D8FB7A012B0AD0FB680133FB60C3
:100C4000064BD3F89C315A1EFB689A42BED800E08E
:100C500000BF00BF1437BD4680BC7047B000002005
:100C600080B584B000AFFFF7ABFF03E07B680122E3
:100C700083F824203B1D19462948FFF758FF0346F7
:100C8000002BF3D10023BB600023FB603BE0254A2F
:100C9000FB6852F8233093F82430002B30D0214ADF
:100CA000FB6852F823301B79BB6019E01D4AFB68D2
:100CB00052F8233093F82430012B0ED1194AFB68E7
:100CC00052F82330022283F82420164AFB6852F897
:100CD000233019461248FFF7F0FEFB680133FB6032
:100CE000104BD3F89C21FB689A4213D90D4AFB683C
:100CF00052F823301B791A46BB689342D6D009E0DC
:100D0000FB680133FB60074BD3F89C21FB689A42D8
:100D1000BDD800E000BF00BF1037BD4680BD00BF9A
:100D20009C000020B000002080B500AF2A492B486D
:100D3000FFF7FDFE0346002B39D0294BD3F8A03135
:100D400093F82430032B17D1254BD3F8A0311A790F
:100D5000234BD3F8A4311B799A420DD1204BD3F801
:100D6000A031022283F824201D4BD3F8A03119466C
:100D70001A48FFF7A2FE13E0194BD3F8A03193F8FD
:100D80002430002B06D1164BD3F8A031002283F873
:100D9000242005E0124BD3F8A031012283F824204F
:100DA0000F4BD3F8A431032283F8242012E00C4B1C
:100DB000D3F8A03193F82430002B0BD0084BD3F894
:100DC000A031032283F82420054BD3F8A031044A34
:100DD000C2F8A43100BF80BD540200209C00002056
:100DE000B000002080B584B000AF78607B689B695C
:100DF000FB60FB68023B1B78FB72FB7A002B23DB5A
:100E0000012B02DD022B1BD01EE0FFF729FF104B48
:100E100093F8A831012B16D10D4BD3F8A03106332E
:100E20000C491846FFF7A4F90346002B0BD0FFF737
:100E30007BFF094B5B68084A43F08053536002E034
:100E4000FFF70EFF00E000BF00BF1037BD4680BDBA
:100E5000B0000020F203002000ED00E080B483B079
:100E600000AF78607B68012B06D0022B06D0002BE8
:100E700000D005E000DF03E001DF01E002DF00BF9A
:100E800000BF0C37BD4680BC7047000080B400AF87
:100E9000104BD3F89031A3F540630F4A934201D22F
:100EA000022313E00D4A0B4BC3F89021094BD3F8F2
:100EB0009031A3F54063074AC2F89431054BD3F84B
:100EC0009431083B034AC2F8983109231846BD46BD
:100ED00080BC7047B0000020700700200028002070
:100EE00080B485B000AF78607B685B6B1A467B6826
:100EF000DA637B68DB6B1A1F7B68DA637B68DB6B0A
:100F00004FF080721A607B68DB6B1A1F7B68DA63B4
:100F10007B681A6B7B68DB6B1A607B68DB6B1A1F64
:100F20007B68DA637B68DB6B6FF002021A60002378
:100F3000FB730BE07B68DB6B1A1F7B68DA637B68F3
:100F4000DB6B00221A60FB7B0133FB73FB7B0C2BFA
:100F5000F0D9092318461437BD4680BC70470000FD
:100F600080B500AFFFF7E0FE034B5B68024A43F039
:100F70008053536000BF80BD00ED00E080B582B0BB
:100F800000AF00237B6031E01D4A7B6852F82330BC
:100F900093F82430002B26D1194A7B6852F823306D
:100FA00093F82830012B1ED1154A7B6852F8233064
:100FB000DA6A013ADA62124A7B6852F82330DB6A55
:100FC000002B10D10E4A7B6852F82330012283F89F
:100FD00024200B4A7B6852F82330002283F8282013
:100FE0000220FFF73BFF7B6801337B60044BD3F8A3
:100FF0009C317A689A42C7D300BF0837BD4680BD8E
:10100000B00000206F4BD3F8A031EFF30980024607
:10101000DA636C4BD3F8A031DA6B043ADA63694BCC
:10102000D3F8A031DB6B22461A60664BD3F8A031AF
:10103000DA6B043ADA63634BD3F8A031DB6B2A46F0
:101040001A60604BD3F8A031DA6B043ADA635D4B77
:10105000D3F8A031DB6B32461A605A4BD3F8A0317B
:10106000DA6B043ADA63574BD3F8A031DB6B3A46BC
:101070001A60544BD3F8A031DA6B043ADA63514B5F
:10108000D3F8A031DB6B42461A604E4BD3F8A03147
:10109000DA6B043ADA634B4BD3F8A031DB6B4A4688
:1010A0001A60484BD3F8A031DA6B043ADA63454B47
:1010B000D3F8A031DB6B52461A60424BD3F8A03113
:1010C000DA6B043ADA633F4BD3F8A031DB6B5A4654
:1010D0001A603C4BD3F8A431002B09D0394BD3F81C
:1010E000A431384AC2F8A031364B0022C3F8A421FB
:1010F000344BD3F8A031DB6B1B689B46314BD3F8E4
:10110000A031DA6B0432DA632E4BD3F8A031DB6BFB
:101110001B689A462B4BD3F8A031DA6B0432DA63A2
:10112000284BD3F8A031DB6B1B689946254BD3F8CD
:10113000A031DA6B0432DA63224BD3F8A031DB6BD7
:101140001B6898461F4BD3F8A031DA6B0432DA6380
:101150001C4BD3F8A031DB6B1B681F46194BD3F82F
:10116000A031DA6B0432DA63164BD3F8A031DB6BB3
:101170001B681E46134BD3F8A031DA6B0432DA63D6
:10118000104BD3F8A031DB6B1B681D460D4BD3F819
:10119000A031DA6B0432DA630A4BD3F8A031DB6B8F
:1011A0001B681C46074BD3F8A031DA6B0432DA63B4
:1011B000044BD3F8A031DB6B184680F309887047E5
:1011C00000BF00BFB000002080B582B000AF09238F
:1011D000FB71FFF7F9FB204B002283F8A8211E4B7F
:1011E0000022C3F8A0211C4B0022C3F8A421FFF762
:1011F0004DFE0346FB71FB79092B01D0FB7927E0FB
:10120000642216491648FFF7F0FB0346022B03D071
:101210000023FB71FB791BE0124A134B03CB1060D8
:1012200051601B781372114BFF221A710F4B104A39
:101230001A630E4B4FF496721A600C4800F04CF88B
:101240000346FB71FB79092B01D0FB7900E0FB79A8
:1012500018460837BD4680BDB00000205C02002063
:101260009C000020F2030020AC170008EC030020D3
:10127000A50B000880B500AF154B012283F8A8210B
:10128000134B144AC3F8A021124800F061F803463A
:10129000092B01D0012318E0FFF79FFB0C4BD3F87B
:1012A000A031DB6B184680F30988EFF3148040F01F
:1012B000020080F31488EFF3148040F0010080F303
:1012C0001488044B1B6B98470923184680BD00BF48
:1012D000B0000020EC03002080B582B000AF786041
:1012E000194BD3F898217B681B68D31A174A93428D
:1012F00001D2022323E0144BD3F898217B685A6370
:101300007B685A6B7B681B68D21A7B689A637B6820
:101310009B6B083B0C4AC2F898317868FFF7E0FDF8
:10132000094BD3F89C3108497A6841F82320064BD1
:10133000D3F89C310133044AC2F89C310923184682
:101340000837BD4680BD00BFB000002070070020F8
:1013500080B582B000AF78607B6893F82430002BB2
:1013600008D17B68012283F824200020FFF776FD56
:10137000092300E0032318460837BD4680BD80B529
:1013800082B000AF78607B6893F82430002B0DD0DA
:101390007B6893F82430022B08D07B68002283F806
:1013A00024200120FFF75AFD092300E004231846FA
:1013B0000837BD4680BD80B582B000AF7860396027
:1013C0007B689B6A002B03D17B683A689A621EE0B7
:1013D0007B68DB6A002B18D17B689B6A3A689A426B
:1013E00001D1062314E07B683A68DA623B6893F81F
:1013F0002430032B07D13B68002283F824200120EE
:10140000FFF72CFD03E0042302E0082300E009239A
:1014100018460837BD4680BD80B582B000AF786001
:101420007B689B6A002B01D1072317E07B68DA6A8F
:101430007B689A627B680022DA627B689B6A93F819
:101440002430002B09D17B689B6A012283F8242079
:101450000020FFF703FD092300E0032318460837A7
:10146000BD4680BD80B500AF104B1B6801330F4AED
:1014700013600F4B1B7883F00103DAB20C4B1A7028
:101480000A4B1B68642B06D10A490B48FFF793FFF0
:101490000A48FFF75DFF054B1B68C82BE4D1034BDF
:1014A00000221A600448FFF7B7FFDDE7880000203C
:1014B00024050020A004002070040020280500203E
:1014C00080B500AF0E4B1B6801330D4A13600D4B06
:1014D0001B7883F00103DAB20A4B1A70084B1B68C1
:1014E000642B02D10848FFF733FF054B1B68C82B5C
:1014F000E8D1034B00221A600448FFF740FFE1E700
:101500008C000020E1040020E404002028050020D5
:1015100080B500AF0E4B1B6801330D4A13600D4BB5
:101520001B7883F00103DAB20A4B1A70084B1B6870
:10153000642B02D10848FFF70BFF054B1B68C82B33
:10154000E8D1034B00221A600448FFF718FFE1E7D7
:10155000900000206805002030040020E4040020F2
:1015600080B500AF104B1B6801330F4A13600F4B5F
:101570001B7883F00103DAB20C4B1A700A4B1B681C
:10158000032B03D10A490B48FFF715FF064B1B68D5
:10159000C82BE7D10748FFF73FFF034B00221A6033
:1015A0000348FFF7ECFEDDE794000020E004002094
:1015B0003004002070040020B0B582B000AFFFF707
:1015C00003FE0346092B00D0FEE7374A3B1D126895
:1015D000114619800233120C1A70344A344B1446E7
:1015E0001D460FCD0FC42B682360324A3B1D13608C
:1015F000304B03225A60304B304A10681860928892
:101600009A802F4B04221A712D4B4FF480621A607E
:101610002B4B2C4A1A632A4B01225A712A4B2B4A14
:101620001068186092889A80294B03221A71284BFF
:101630004FF480621A60264B264A1A63264B274ACB
:101640001068186092889A80254B02221A71244BE8
:101650004FF480621A60224B224A1A63224B234ABB
:101660001068186092889A80214B01221A71204BD1
:101670004FF480621A601E4B1E4A1A631048FFF72F
:101680002BFE1348FFF728FE1548FFF725FE1848E4
:10169000FFF722FE0A48FFF75BFEFFF7EBFD002392
:1016A00018460837BD46B0BDEC1700087804002086
:1016B000B817000870040020A6040020CC1700080A
:1016C000A0040020651400082E050020D41700088F
:1016D00028050020C1140008EA040020DC170008D7
:1016E000E40400201115000836040020E417000867
:1016F00030040020611500080D488546AFF30080D6
:101700000C480D490D4A002302E0D458C45004335C
:10171000C4188C42F9D30A4A0A4C002301E0136032
:101720000432A242FBD300F011F8FFF745FFFEE7B9
:10173000002800200000002000000020F81700080A
:10174000000000206C050020FEE7000070B50025B9
:101750000C4E0D4CA41BA410A54209D100F01AF8A0
:1017600000250A4E0A4CA41BA410A54205D170BD49
:1017700056F8253098470135EEE756F8253098475A
:101780000135F2E7F0170008F0170008F01700081D
:10179000F4170008F8B500BFF8BC08BC9E467047B7
:0C17A000F8B500BFF8BC08BC9E467047BE
:1017AC0069646C655461736B000000004D75746561
:1017BC0078315F5368617265645F54315F543400F3
:1017CC005461736B310000005461736B3200000084
:1017DC005461736B330000005461736B3400000070
:0417EC004142430033
:0417F0005501000897
:0417F40031010008B7
:04000005080016F9E0
:00000001FF
