:020000040800F2
:100000000028002019110008691100086911000872
:10001000691100086911000869110008000000005A
:10002000000000000000000000000000691100084E
:10003000691100080000000069110008691100083A
:1000400069110008691100086911000869110008A8
:100050006911000869110008B9020008DD020008F2
:10006000010300082503000849030008691100087E
:100070006911000869110008691100086911000878
:100080006911000869110008691100086911000868
:100090006911000869110008691100086D03000862
:1000A0006911000869110008691100086911000848
:1000B000691100086911000869110008F10D0008B4
:1000C000A10E0008AD0E00085D0F00081910000811
:1000D0002D10000841100008551000086910000894
:1000E00015040008691100080000000069110008EB
:1000F00069110008691100086911000869110008F8
:1001000069110008691100086911000869110008E7
:1001100069110008691100086911000869110008D7
:1001200069110008691100086911000869110008C7
:1001300010B5054C237833B9044B13B10448AFF321
:1001400000800123237010BD00000020000000008B
:10015000B411000808B5034B1BB103490348AFF3C2
:10016000008008BD0000000004000020B411000859
:1001700080B500AF104B114A1A600F4B0022DA8095
:100180000D4B00221A810C4B0D4ADA600A4B0022FB
:100190001A82094B01225A82074B0022DA82064B4F
:1001A0004FF480621A83044800F0FAFA024800F023
:1001B00013FC00BF80BD00BF1C00002000540040A5
:1001C000A086010080B5C8B002AF07F1080319602E
:1001D0003B1D1A6007F10E0302461A8007F10E0359
:1001E0001B881B0A9BB2DAB207F114031A7007F1DD
:1001F0000E031B88DAB207F114035A700023C7F804
:10020000143111E0D7F8143107F1080212681A44CA
:10021000D7F814310233117807F11402D154D7F80A
:1002200014310133C7F81431D7F814313A1D12686C
:100230009A42E7D83B1D1B68991C07F11402012361
:100240000193002300930B462A21044800F08FFC01
:100250000023184607F58C77BD4680BD1C000020A2
:1002600080B588B002AF0346B9607A60FB81FB8934
:100270001B0A9BB2DBB23B75FB89DBB27B7507F1D6
:100280001402002301930023009302232A2109482A
:1002900000F06DFC01230193012300937B68BA6891
:1002A0002A21044800F0DBFC002318461837BD461D
:1002B00080BD00BF1C00002080B500AF054B5B690E
:1002C000044A43F001035361034B1B68984700BF86
:1002D00080BD00BF000401407400002080B500AF65
:1002E000054B5B69044A43F002035361034B5B68AF
:1002F000984700BF80BD00BF00040140740000208B
:1003000080B500AF054B5B69044A43F004035361B9
:10031000034B9B68984700BF80BD00BF00040140AD
:100320007400002080B500AF054B5B69044A43F0C0
:1003300008035361034BDB68984700BF80BD00BFD3
:10034000000401407400002080B500AF054B5B69DC
:10035000044A43F010035361034B1B69984700BFE5
:1003600080BD00BF000401407400002080B500AFD4
:10037000264B5B6903F02003002B08D0234B5B69FD
:10038000224A43F020035361214B5B6998471F4B7E
:100390005B6903F04003002B08D01C4B5B691B4AD0
:1003A00043F0400353611A4B9B699847174B5B69B5
:1003B00003F08003002B08D0144B5B69134A43F011
:1003C00080035361124BDB699847104B5B6903F460
:1003D0008073002B08D00D4B5B690C4A43F480738B
:1003E00053610B4B1B6A9847084B5B6903F400731E
:1003F000002B08D0054B5B69044A43F4007353613A
:10040000034B5B6A984700BF80BD00BF00040140FA
:100410007400002080B500AF264B5B6903F4806355
:10042000002B08D0234B5B69224A43F4806353615D
:10043000214B9B6A98471F4B5B6903F40063002BB9
:1004400008D01C4B5B691B4A43F4006353611A4B91
:10045000DB6A9847174B5B6903F48053002B08D085
:10046000144B5B69134A43F480535361124B1B6B6B
:100470009847104B5B6903F40053002B08D00D4BD9
:100480005B690C4A43F4005353610B4B5B6B984719
:10049000084B5B6903F48043002B08D0054B5B6974
:1004A000044A43F480435361034B9B6B984700BF5E
:1004B00080BD00BF000401407400002080B483B000
:1004C00000AF0346FB80FB88802B42D0802B11DCE1
:1004D000082B36D0082B06DC022B2ED0042B2ED076
:1004E000012B28D047E0202B2FD0402B2FD0102BD2
:1004F00029D040E0B3F5006F33D0B3F5006F09DCCD
:10050000B3F5007F29D0B3F5806F28D0B3F5807F95
:1005100021D030E0B3F5005F27D0B3F5005F03DCF6
:10052000B3F5805F1FD026E0B3F5804F1FD0B3F541
:10053000004F1ED01FE000231EE004231CE0082310
:100540001AE00C2318E0102316E0142314E01823FB
:1005500012E01C2310E000230EE004230CE008232B
:100560000AE00C2308E0102306E0142304E018231B
:1005700002E01C2300E0002318460C37BD4680BC77
:100580007047000090B585B000AF78607B681B684D
:100590007C4A93420DD17C4B1B78012B09D07B4BBD
:1005A0009B697A4A43F004039361774B01221A70E6
:1005B0004AE07B681B68764A93420DD1724B5B78A8
:1005C000012B09D0714B9B69704A43F0080393617A
:1005D0006D4B01225A7037E07B681B686D4A93426D
:1005E0000DD1694B9B78012B09D0684B9B69674AF9
:1005F00043F010039361644B01229A7024E07B68FE
:100600001B68654A93420DD15F4BDB78012B09D003
:100610005E4B9B695D4A43F0200393615A4B012274
:10062000DA7011E07B681B685C4A93420CD1564B30
:100630001B79012B08D0554B9B69544A43F040036A
:100640009361514B01221A717B689B79052B08D964
:100650004E4B9B694D4A43F0010393614A4B012283
:100660005A710023BB607B689B88FF2B02D87B6894
:100670001B6802E07B681B680433BB600423FB73C8
:100680007B689B881846FFF719FF03461A460F231D
:100690009340DA43BB681B681A40BB681A607B68EA
:1006A0009B79032B14D97B689B79072B10D80023E7
:1006B000FB737B689B79043B9B005AB27B68DB79B8
:1006C0005BB213435BB2DBB203F00F03FB7337E0A3
:1006D0000023FB737B689B79002B03D07B689B799D
:1006E000012B07D17B689B799B00DBB203F00F03E2
:1006F000FB7325E07B689B79022B03D07B689B7999
:10070000032B1BD10823FB737B689B79022B0AD137
:100710007B681B68DA687B689B8819467B681B6866
:100720000A43DA600CE07B681B68DA687B689B88A8
:1007300019467B681B680A43DA6001E00423FB73F7
:10074000FC7B7B689B881846FFF7B8FE034604FADB
:1007500003F3DA43BB681B681A40BB681A60FC7B72
:100760007B689B881846FFF7A9FE034604FA03F24C
:10077000BB681B681A43BB681A6000BF1437BD46CC
:1007800090BD00BF00080140B000002000100240F2
:10079000000C01400010014000140140001801400D
:1007A00080B58AB000AF786007F10C0300221A60B0
:1007B0005A609A600023FB6100F014FCF861FB6949
:1007C0007E4AA2FB03239B0CFB61FB699BB2FB618E
:1007D0007B681B687A4A934206D17A4BDB69794A77
:1007E00043F40013D36105E0764BDB69754A43F4AB
:1007F0008003D3617B68DB88002B40F0DA80FA89C4
:10080000FB699BB213439BB2FB81BA8A7B681B894D
:1008100013439BB2BB82FB696B4A02FB03F27B680A
:10082000DB685B00B2FBF3F3BB61BA8ABB699BB2C6
:1008300013439BB2BB82FA8AFB699BB201339BB222
:1008400013439BB2FB82BA897B68D98A7B681B8B76
:100850000B4399B27B685B8B0B4399B27B68DB8857
:100860000B439BB213439BB2BB813A8A7B681B8AC2
:1008700013439BB23B827A8A7B685B8A13439BB2A9
:100880007B827B689B88022B17D13B8A1AB27B68DC
:100890001B7D5B001BB213431BB29BB23B827B6888
:1008A0005B8A002B09D17B8A1AB27B685B7D5B0077
:1008B0001BB213431BB29BB27B827B689B8B002BCA
:1008C00029D0FA897B689B8B13439BB2FB817B68A1
:1008D0001B683B4A934206D13C4B1B683B4A43F0A2
:1008E0000043136005E03A4B1B68394A43F00203AA
:1008F000136000237B620BE07B687A6A083253F84E
:10090000222034497B6A41F823207B6A01337B62D1
:100910007B6A062BF0DD7B68DB8B002B2BD0FA8902
:100920007B689B8B13439BB2FB817B681B68244ACB
:10093000934206D1264B1B68254A43F001031360FE
:1009400005E0234B1B68224A43F008031360002391
:100950003B620DE07A683B6A0E339B0013445A6891
:100960001C493B6A073341F823203B6A01333B6251
:100970003B6A062BEEDDFA897B681B685A60BA8AEF
:100980007B681B68DA61FA8A7B681B681A623A8A9C
:100990007B681B689A607A8A7B681B68DA60BB890F
:1009A00043F001039BB2BB81BA897B681B681A6064
:1009B00000BF00BF2837BD4680BD00BF83DE1B439C
:1009C000005400400010024040420F0000E100E0EF
:1009D00004E100E0B800002080B586B000AF786088
:1009E0007B681B68154A934208D1154B3B618023F5
:1009F000BB82134BBB604023BB8109E0104B3B61C2
:100A00004FF40063BB820E4BBB604FF48063BB812D
:100A10000723BB750123FB750723BB730123FB73FE
:100A200007F110031846FFF7ADFD07F1080318465C
:100A3000FFF7A8FD00BF1837BD4680BD0054004039
:100A4000000C014080B485B000AF78600B46FB70AD
:100A50000023FB73FB780F2B0FD87B681B685B6947
:100A6000FA78012101FA02F21A40FB7822FA03F324
:100A7000002B13D00123FB7310E07B681B689B697C
:100A8000FA78103A012101FA02F21A40FB78103B81
:100A900022FA03F3002B01D00123FB73FB7B1846E2
:100AA0001437BD4680BC704780B582B000AF786017
:100AB0000B46FB701346BB70BB78012B07D000BF01
:100AC00011217868FFF7BEFF0346002BF8D1FB78B1
:100AD000012B08D17B681B681A687B681B6842F48D
:100AE00080721A6007E07B681B681A687B681B6865
:100AF00022F480721A6000BF0837BD4680BD80B402
:100B000083B000AF78600B46FB70FB78012B08D1F7
:100B10007B681B681A687B681B6842F400721A6065
:100B200007E07B681B681A687B681B6822F4007208
:100B30001A6000BF0C37BD4680BC704780B483B0DC
:100B400000AF78600B467B8013467B707B885B0030
:100B50007B807B789AB27B8813437B807B681B68A1
:100B60007A881A6100BF0C37BD4680BC704780B5DB
:100B700086B000AFF8607A603B600B467B81002353
:100B80003B6197F820301A460121F868FFF78CFF87
:100B900000BF0021F868FFF755FF0346002BF8D08F
:100BA000FB681B685B693B617B8900221946F8681A
:100BB000FFF7C4FF00BF0121F868FFF743FF0346BA
:100BC000002BF8D0FB681B685B693B61FB681B6806
:100BD0009B693B6100BF1021F868FFF733FF0346B4
:100BE000002BF8D000BF1121F868FFF72BFF034658
:100BF000002BF8D000BF1221F868FFF723FF03464F
:100C0000002BF8D000BF0721F868FFF71BFF034651
:100C1000002BF8D000237B6111E07B697A681344D4
:100C20001A78FB681B681A6100BF0721F868FFF794
:100C300009FF0346002BF8D07B6901337B617B6998
:100C40003A689A42E9D897F82430012B03D1012160
:100C5000F868FFF754FF00BF1837BD4680BD80B568
:100C600086B000AFF8607A603B600B467B81002362
:100C70003B6197F820301A460121F868FFF714FF0E
:100C800000BF0021F868FFF7DDFE0346002BF8D017
:100C9000FB681B685B693B617B8901221946F86828
:100CA000FFF74CFF3B68012B60D900BF0121F868BA
:100CB000FFF7C8FE0346002BF8D0FB681B685B6992
:100CC0003B61FB681B689B693B61FB681B681A689A
:100CD000FB681B6842F480621A6000237B6140E07D
:100CE00000BF0621F868FFF7ADFE0346002BF8D0E1
:100CF0003B689A1E7B699A4228D1FB681B681A6878
:100D0000FB681B6822F480621A60FB681B68196923
:100D10007B697A681344CAB21A7097F82430012BA1
:100D200003D10121F868FFF7EAFE00BF0621F86849
:100D3000FFF788FE0346002BF8D0FB681B68196993
:100D40007B697A681344CAB21A7040E0FB681B687A
:100D500019697B697A681344CAB21A707B690133D6
:100D60007B617B693A689A42BAD830E03B68012BD4
:100D70002DD100BF0121F868FFF764FE0346002B68
:100D8000F8D0FB681B681A68FB681B6822F4806255
:100D90001A60FB681B685B693B61FB681B689B69A9
:100DA0003B6197F82430012B03D10121F868FFF74C
:100DB000A6FE00BF0621F868FFF744FE0346002B9D
:100DC000F8D0FB681B681B69DAB27B681A70FB6895
:100DD0001B8BB3F5806F07D1FB681B681A68FB6833
:100DE0001B6842F480621A6000BF1837BD4680BDA0
:100DF00080B582B000AF00233B60274B5B69264B78
:100E00005B6903F00203002B0DD0234B9B6903F0B9
:100E10000103002B07D1204B5B693B601E4B9B6994
:100E20003B600123FB711C4B5B691B4B5B691A4BDD
:100E30005B6903F01003002B08D0174B5B693B6024
:100E4000154B154A1B6813600423FB71124B5B6939
:100E500003F04003002B07D00F4B9B6903F0010305
:100E6000002B01D10523FB710B4B5B6903F0800361
:100E7000002B07D0084B9B6903F00103002B01D125
:100E80000623FB71FB79054A52F82330984700BFCF
:100E90000837BD4680BD00BF00540040B8000020A8
:100EA00080B400AF00BFBD4680BC704780B582B043
:100EB00000AF00233B60274B5B69264B5B6903F067
:100EC0000203002B0DD0234B9B6903F00103002B81
:100ED00007D1204B5B693B601E4B9B693B60012344
:100EE000FB711C4B5B691B4B5B691A4B5B6903F025
:100EF0001003002B08D0174B5B693B60154B154A5C
:100F00005B6853600423FB71124B5B6903F0400381
:100F1000002B07D00F4B9B6903F00103002B01D17D
:100F20000523FB710B4B5B6903F08003002B07D09B
:100F3000084B9B6903F00103002B01D10623FB71D1
:100F4000FB79054A073352F82330984700BF08372A
:100F5000BD4680BD00580040B800002080B400AFFE
:100F600000BFBD4680BC704780B400AF0D4B5B68CE
:100F70009B0803F00303032B10D801A252F823F0BF
:100F8000910F0008950F0008990F00089D0F0008A9
:100F9000054B03E0054B01E0044BFFE71846BD4657
:100FA00080BC70470010024000127A000024F40058
:100FB00080B582B000AFFFF7D7FF0146074B5B68F3
:100FC0001B0903F00F03064AD35C21FA03F37B608D
:100FD0007B6818460837BD4680BD00BF0010024040
:100FE000DC11000880B582B000AFFFF7E1FF0146D9
:100FF000074B5B681B0A03F00703064AD35C21FA20
:1010000003F37B607B6818460837BD4680BD00BF90
:1010100000100240D411000880B500AF024B1B68DD
:10102000984700BF80BD00BFF000002080B500AF32
:10103000024B5B68984700BF80BD00BFF0000020F6
:1010400080B500AF024B1B68984700BF80BD00BF52
:101050000001002080B500AF024B5B68984700BFDD
:1010600080BD00BF0001002080B500AF024B9B682F
:10107000984700BF80BD00BF0001002080B584B04C
:1010800000AF244A07F1080392E803001860043314
:10109000198002330A0C1A703B4600221A60C3F80A
:1010A0000320FFF765F807F1080307221946AF2070
:1010B000FFF788F83B4607221946AF20FFF7D0F824
:1010C0000A233B720B237B720C23BB720D23FB7232
:1010D00007F108030422194640F6FF70FFF772F883
:1010E0003B460422194640F6FF70FFF7B9F8AB23E0
:1010F0003B7207F108030122194641F23420FFF741
:1011000061F83B460122194641F23420FFF7A8F866
:10111000FEE700BFCC1100080D488546AFF3008004
:101120000C480D490D4A002302E0D458C450043342
:10113000C4188C42F9D30A4A0A4C002301E0136018
:101140000432A242FBD300F011F8FFF797FFFEE74D
:10115000002800200000002000000020F4110008FA
:10116000000000200C010020FEE7000070B5002503
:101170000C4E0D4CA41BA410A54209D100F01AF886
:1011800000250A4E0A4CA41BA410A54205D170BD2F
:1011900056F8253098470135EEE756F82530984740
:1011A0000135F2E7EC110008EC110008EC11000821
:1011B000F0110008F8B500BFF8BC08BC9E467047A7
:0C11C000F8B500BFF8BC08BC9E467047A4
:1011CC0001020304050607000000000001020304ED
:1011DC0000000000000000000102030406070809DB
:0411EC0055010008A1
:0411F00031010008C1
:0400000508001119C5
:00000001FF
