:020000040800F2
:100000000050002059170008A9170008A917000878
:10001000A9170008A9170008A91700080000000088
:10002000000000000000000000000000A917000808
:10003000A917000800000000A9170008A917000868
:10004000A9170008A9170008A9170008A917000890
:10005000A9170008A9170008790300089D030008E4
:10006000C1030008E503000809040008A9170008F7
:10007000A9170008A9170008A9170008A917000860
:10008000A9170008A9170008A9170008A917000850
:10009000A9170008A9170008A91700082D040008CF
:1000A000A9170008A9170008A9170008A917000830
:1000B00051110008B51100080D1200086512000862
:1000C0005D130008511400084D150008451600087E
:1000D000591600086D1600088116000895160008CC
:1000E000D5040008A917000800000000A91700089F
:1000F000A9170008A9170008A9170008A9170008E0
:10010000A9170008A9170008A9170008A9170008CF
:10011000A9170008A9170008A9170008A9170008BF
:10012000A9170008A9170008A9170008A9170008AF
:1001300010B5054C237833B9044B13B10448AFF321
:1001400000800123237010BD00000020000000008B
:10015000F417000808B5034B1BB103490348AFF37C
:10016000008008BD0000000004000020F417000813
:1001700080B5A8B000AF78607B681B7987F89F30A6
:100180007B681B68FB6000233B76002387F82430E4
:10019000002387F83030002387F83C30002387F8AD
:1001A0004830002387F85830002387F86830002350
:1001B00087F8783097F89F301B0107F1A0021344AD
:1001C000583B01221A7097F89F301B0107F1A002DB
:1001D0001344563B00221A8097F89F301B0107F109
:1001E000A0021344543B08221A8097F89F301B0149
:1001F00007F1A0021344523B00221A8097F89F3067
:1002000004331B0107F1A0021344903B60221A80C3
:1002100097F89F3004331B0107F1A00213448E3B73
:1002200000221A8097F89F3004331B0107F1A002C7
:1002300013448C3B00221A8097F89F3004331B0133
:1002400007F1A00213448A3B01221A8000233B825B
:100250008023A7F888300023A7F88A300023A7F866
:100260008C300023A7F88E300023A7F890300023AD
:10027000A7F892300023A7F896300023C7F89830EB
:1002800007F10C03184600F07DFD07F10C0318463A
:1002900000F026FBFB680421184600F034FFFB68E1
:1002A00049F64041184600F020FF7B685B7919460B
:1002B000786800F008F8FB68184600F007FF00BFF8
:1002C000A037BD4680BD80B584B000AF78600B46D6
:1002D000FB707B681B79FB73FB785A2B23D05A2B5E
:1002E00004DC002B07D02D2B11D041E0872B26D02A
:1002F000B42B30D03CE07B681B68F97B4FF47A72FA
:10030000184600F010FF7B6800225A712FE07B68CE
:100310001B68F97B4FF4FA62184600F004FF7B6813
:100320002D225A7123E07B681B68F97B40F6B832B6
:10033000184600F0F8FE7B685A225A7117E07B6875
:100340001B68F97B4FF47A62184600F0ECFE7B687C
:1003500087225A710BE07B681B68F97B41F2883277
:10036000184600F0E0FE7B68B4225A7100BF00BF5F
:100370001037BD4680BD000080B500AF054B5B69FE
:10038000044A43F001035361034B1B68984700BFC5
:1003900080BD00BF000401401C00002080B500AFFC
:1003A000054B5B69044A43F002035361034B5B68EE
:1003B000984700BF80BD00BF000401401C00002022
:1003C00080B500AF054B5B69044A43F004035361F9
:1003D000034B9B68984700BF80BD00BF00040140ED
:1003E0001C00002080B500AF054B5B69044A43F058
:1003F00008035361034BDB68984700BF80BD00BF13
:10040000000401401C00002080B500AF054B5B6973
:10041000044A43F010035361034B1B69984700BF24
:1004200080BD00BF000401401C00002080B500AF6B
:10043000264B5B6903F02003002B08D0234B5B693C
:10044000224A43F020035361214B5B6998471F4BBD
:100450005B6903F04003002B08D01C4B5B691B4A0F
:1004600043F0400353611A4B9B699847174B5B69F4
:1004700003F08003002B08D0144B5B69134A43F050
:1004800080035361124BDB699847104B5B6903F49F
:100490008073002B08D00D4B5B690C4A43F48073CA
:1004A00053610B4B1B6A9847084B5B6903F400735D
:1004B000002B08D0054B5B69044A43F40073536179
:1004C000034B5B6A984700BF80BD00BF000401403A
:1004D0001C00002080B500AF264B5B6903F48063ED
:1004E000002B08D0234B5B69224A43F4806353619D
:1004F000214B9B6A98471F4B5B6903F40063002BF9
:1005000008D01C4B5B691B4A43F4006353611A4BD0
:10051000DB6A9847174B5B6903F48053002B08D0C4
:10052000144B5B69134A43F480535361124B1B6BAA
:100530009847104B5B6903F40053002B08D00D4B18
:100540005B690C4A43F4005353610B4B5B6B984758
:10055000084B5B6903F48043002B08D0054B5B69B3
:10056000044A43F480435361034B9B6B984700BF9D
:1005700080BD00BF000401401C00002080B483B097
:1005800000AF0346FB80FB88802B42D0802B11DC20
:10059000082B36D0082B06DC022B2ED0042B2ED0B5
:1005A000012B28D047E0202B2FD0402B2FD0102B11
:1005B00029D040E0B3F5006F33D0B3F5006F09DC0C
:1005C000B3F5007F29D0B3F5806F28D0B3F5807FD5
:1005D00021D030E0B3F5005F27D0B3F5005F03DC36
:1005E000B3F5805F1FD026E0B3F5804F1FD0B3F581
:1005F000004F1ED01FE000231EE004231CE0082350
:100600001AE00C2318E0102316E0142314E018233A
:1006100012E01C2310E000230EE004230CE008236A
:100620000AE00C2308E0102306E0142304E018235A
:1006300002E01C2300E0002318460C37BD4680BCB6
:100640007047000090B585B000AF78607B681B688C
:100650007C4A93420DD17C4B1B78012B09D07B4BFC
:100660009B697A4A43F004039361774B01221A7025
:100670004AE07B681B68764A93420DD1724B5B78E7
:10068000012B09D0714B9B69704A43F008039361B9
:100690006D4B01225A7037E07B681B686D4A9342AC
:1006A0000DD1694B9B78012B09D0684B9B69674A38
:1006B00043F010039361644B01229A7024E07B683D
:1006C0001B68654A93420DD15F4BDB78012B09D043
:1006D0005E4B9B695D4A43F0200393615A4B0122B4
:1006E000DA7011E07B681B685C4A93420CD1564B70
:1006F0001B79012B08D0554B9B69544A43F04003AA
:100700009361514B01221A717B689B79052B08D9A3
:100710004E4B9B694D4A43F0010393614A4B0122C2
:100720005A710023BB607B689B88FF2B02D87B68D3
:100730001B6802E07B681B680433BB600423FB7307
:100740007B689B881846FFF719FF03461A460F235C
:100750009340DA43BB681B681A40BB681A607B6829
:100760009B79032B14D97B689B79072B10D8002326
:10077000FB737B689B79043B9B005AB27B68DB79F7
:100780005BB213435BB2DBB203F00F03FB7337E0E2
:100790000023FB737B689B79002B03D07B689B79DC
:1007A000012B07D17B689B799B00DBB203F00F0321
:1007B000FB7325E07B689B79022B03D07B689B79D8
:1007C000032B1BD10823FB737B689B79022B0AD177
:1007D0007B681B68DA687B689B8819467B681B68A6
:1007E0000A43DA600CE07B681B68DA687B689B88E8
:1007F00019467B681B680A43DA6001E00423FB7337
:10080000FC7B7B689B881846FFF7B8FE034604FA1A
:1008100003F3DA43BB681B681A40BB681A60FC7BB1
:100820007B689B881846FFF7A9FE034604FA03F28B
:10083000BB681B681A43BB681A6000BF1437BD460B
:1008400090BD00BF00080140580000200010024089
:10085000000C01400010014000140140001801404C
:1008600080B483B000AF78607B681B689B687A684F
:1008700092881340002B01D0012300E0002318468A
:100880000C37BD4680BC704780B483B000AF786041
:100890000B46FB70FB78012B05D17B689A887B683F
:1008A0001B681A6104E07B689A887B681B685A6140
:1008B00000BF0C37BD4680BC704780B483B000AF2A
:1008C00078607B681B68DA687B689B8819467B6860
:1008D0001B684A40DA6000BF0C37BD4680BC7047D9
:1008E00090B488B000AF786000233B830023FB8284
:1008F0000023BB8200237B820023BB810023FB817A
:1009000000237B810023FB770023BB7700237B77C9
:100910007B681B68B3F1804F06D1924BDB69914A2B
:1009200043F00103D36116E07B681B688E4A934253
:1009300006D18C4BDB698B4A43F00203D3610AE09A
:100940007B681B68894A934205D1864BDB69854ADF
:1009500043F00403D3617B689B88002B12D07B6833
:100960001A897B68DB8813439AB27B685B891343DF
:100970009AB27B689B8813439AB2BB8A9BB213439B
:100980009BB2BB8200233B77C1E03B7F002B06D1AB
:1009900000237B770023FB770023BB7719E03B7FA5
:1009A000012B06D100237B770823FB770423BB7739
:1009B0000FE03B7F022B06D101237B770023FB77DF
:1009C0000823BB7705E001237B770823FB770C2303
:1009D000BB773A7F796813465B0013449B000B4456
:1009E0000C331B78012B40F08F807B68B3F8863086
:1009F000002B0BD07B68B3F88830012B06D1BB8A63
:100A00009BB243F050039BB2BB820FE07B68B3F80C
:100A10008630002B0AD07B68B3F88830022B05D1D2
:100A2000BB8A9BB243F060039BB2BB827B7F5B00BF
:100A300007F12002134433F8143C9BB219B23A7FF9
:100A4000786813465B0013449B0003440E331B88F5
:100A50001A46FB7F02FA03F318B23A7F7C6813460A
:100A60005B0013449B00234410331B881A46FB7F12
:100A700002FA03F31BB2034318B23A7F7C681346B1
:100A80005B0013449B00234412331B881A46FB7FF0
:100A900002FA03F31BB203431BB20B431AB27B7F70
:100AA00092B25B0007F120010B4423F8142C3A7F2B
:100AB000796813465B0013449B000B4414331B8876
:100AC0001A46BB7F02FA03F319B23A7F78681346DD
:100AD0005B0013449B00034416331B881A46BB7FFC
:100AE00002FA03F31BB20B431AB27B899BB21BB20F
:100AF00013431BB29BB27B817B68B3F88620BB8A11
:100B00009BB213439BB2BB823B7F01333B773B7F5E
:100B1000032B7FF63AAF0023FB770023BB7700233C
:100B20007B770023FB769BE0FB7E002B06D1002326
:100B30007B770023FB770023BB771FE0FB7E012B35
:100B400006D100237B770823FB770423BB7715E0CE
:100B5000FB7E022B0CD101237B770023FB7708233C
:100B6000BB770BE00010024000040040000800408A
:100B700001237B770823FB770C23BB77FB7E7A6806
:100B80001B0113443C331B78012B66D17B7F5B0038
:100B900007F12002134433F8143C9BB21AB2FB7ED7
:100BA00079681B010B443E331B881946FB7F01FA11
:100BB00003F319B2FB7E78681B01034442331B88A0
:100BC0001846FB7F00FA03F31BB20B4319B2FB7EFE
:100BD00078681B01034440331B881846FB7F00FAEA
:100BE00003F31BB20B4319B2FB7E786804331B017D
:100BF000034404331B881846FB7F00FA03F31BB23F
:100C00000B431BB213431AB27B7F92B25B0007F116
:100C100020010B4423F8142CFB7E7A6804331B015B
:100C200013440A331B881A46BB7F02FA03F31AB235
:100C3000FB7E796804331B010B4408331B8819467B
:100C4000BB7F01FA03F31BB213431AB27B899BB239
:100C50001BB213431BB29BB27B81FB7E0133FB763D
:100C6000FB7E032B7FF660AF7B68B3F87C207B684C
:100C7000B3F87E3013439AB27B68B3F882301343E3
:100C80009AB27B68B3F8843013439AB23B8B9BB221
:100C900013439BB23B837B68B3F87E30002B07D1B4
:100CA0007B68B3F880203B8B9BB213439BB23B83A2
:100CB0007B68B3F88A30002B39D07B68B3F88A2080
:100CC0007B8A9BB213439BB27B827B681B68B3F128
:100CD000804F0BD17B68D3F88C30264A1360264BAB
:100CE0001B68254A43F08053136020E07B681B6833
:100CF000224A93420BD17B68D3F88C301D4A536053
:100D00001D4B1B681C4A43F0005313600FE07B68C7
:100D10001B681B4A93420AD17B68D3F88C30154A72
:100D20009360154B1B68144A43F0804313603B8B60
:100D30009AB27B681B681A60BB8A9AB27B681B6890
:100D40009A607B8A9AB27B681B68DA60BB899AB228
:100D50007B681B689A61FB899AB27B681B68DA61C1
:100D60007B899AB27B681B681A6200BF2037BD4638
:100D700090BC70476000002000E100E000040040EB
:100D80000008004080B5A8B000AF78607B681B68A1
:100D9000B3F1804F4DD1002387F89F3044E097F89E
:100DA0009F20796813465B0013449B000B440C336F
:100DB0001B78002B03D17B689B88002B13D0B04B92
:100DC000C7F8943097F89F309BB2A7F89830082363
:100DD00087F89A30002387F89B3007F19403184670
:100DE000FFF730FC1BE097F89F307A681B01134433
:100DF0003C331B78002B12D0A14BC7F88C3097F8EE
:100E00009F309BB2A7F89030062387F892300123D9
:100E100087F8933007F18C031846FFF713FC97F817
:100E20009F30013387F89F3097F89F30032BB6D956
:100E300021E17B681B68934A934240F08C807B6879
:100E40001B7B002B0CD0904A07F1840392E803002F
:100E500083E8030007F184031846FFF7F3FB10E073
:100E60007B6893F83C30002B0BD0884A07F17C0359
:100E700092E8030083E8030007F17C031846FFF7BC
:100E8000E1FB7B681B7E002B0CD0814A07F17403C9
:100E900092E8030083E8030007F174031846FFF7A4
:100EA000D1FB10E07B6893F84C30002B0BD0794AD3
:100EB00007F16C0392E8030083E8030007F16C0379
:100EC0001846FFF7BFFB7B6893F82430002B0CD04B
:100ED000714A07F1640392E8030083E8030007F115
:100EE00064031846FFF7AEFB10E07B6893F85C30B4
:100EF000002B0BD0694A07F15C0392E8030083E8FA
:100F0000030007F15C031846FFF79CFB7B6893F82E
:100F10003030002B0CD0624A07F1540392E80300F2
:100F200083E8030007F154031846FFF78BFBA2E0A8
:100F30007B6893F86C30002B00F09D80594A07F1D4
:100F40004C0392E8030083E8030007F14C031846C2
:100F5000FFF778FB8FE07B681B68534A934240F0B1
:100F60008A807B681B7B002B0CD0504A07F144031E
:100F700092E8030083E8030007F144031846FFF7F3
:100F800061FB10E07B6893F83C30002B0BD0484AA3
:100F900007F13C0392E8030083E8030007F13C03F8
:100FA0001846FFF74FFB7B681B7E002B0CD0414A95
:100FB00007F1340392E8030083E8030007F13403E8
:100FC0001846FFF73FFB10E07B6893F84C30002B8E
:100FD0000BD0394A07F12C0392E8030083E80300A1
:100FE00007F12C031846FFF72DFB7B6893F824309C
:100FF000002B0CD0314A07F1240392E8030083E868
:10100000030007F124031846FFF71CFB10E07B6880
:1010100093F85C30002B0BD0294A07F11C0392E8AF
:10102000030083E8030007F11C031846FFF70AFBDF
:101030007B6893F83030002B0CD0224A07F1140360
:1010400092E8030083E8030007F114031846FFF752
:10105000F9FA10E07B6893F86C30002B0BD01A4A39
:1010600007F10C0392E8030083E8030007F10C0387
:101070001846FFF7E7FA00BFA037BD4680BD00BFA6
:1010800000080140000400400C1800081418000873
:101090001C180008241800082C1800083418000830
:1010A0003C18000844180008000800404C180008CC
:1010B000541800085C180008641800086C18000830
:1010C000741800087C1800088418000880B483B0E5
:1010D00000AF78607B681B6843F001027B681A6090
:1010E00000BF0C37BD4680BC704780B483B000AFF2
:1010F00078600B467B807A887B68DA6200BF0C37A9
:10110000BD4680BC704780B483B000AF78600B46AA
:101110007B807B88013B1A467B689A6200BF0C3754
:10112000BD4680BC704780B483B000AF78600B468A
:10113000FB7013463B80FB783A8879680C339B0040
:101140000B445A6000BF0C37BD4680BC704700009E
:1011500080B500AF4FF080431B6903F00103002B03
:1011600012D04FF080431B684FF0804223F0010300
:1011700013604FF080431B694FF0804223F001035E
:1011800013610B4B1B6898474FF080431B6903F0BA
:101190004003002B0AD04FF080431B694FF0804280
:1011A00023F040031361024B1B68984700BF80BDCA
:1011B0006000002080B500AF124B1B6903F00103F3
:1011C000002B0ED00F4B1B680E4A23F00103136057
:1011D0000C4B1B690B4A23F0010313610A4B5B683C
:1011E0009847084B1B6903F04003002B08D0054BC0
:1011F0001B69044A23F040031361034B5B68984763
:1012000000BF80BD000400406000002080B500AF3A
:10121000124B1B6903F00103002B0ED00F4B1B6810
:101220000E4A23F0010313600C4B1B690B4A23F099
:10123000010313610A4B9B689847084B1B6903F035
:101240004003002B08D0054B1B69044A23F04003E0
:101250001361034B9B68984700BF80BD00080040A6
:101260006000002080B584B000AF00233B60394BA4
:101270005B6803F40073FB60364B5B6803F48063C8
:10128000BB60344B5B6903F004037B60FB68002B9D
:101290000AD07B68002B07D02E4B2E4A1B681360A8
:1012A0002D4B1B68042098472A4B5B6903F0010310
:1012B0007B60FB68002B0CD07B68002B09D0254B92
:1012C0009B6903F48033002B03D1234B1B6801205F
:1012D0009847204B5B6903F007037B60FB68002B9A
:1012E00015D0BB68002B12D07B68002B0FD0194B98
:1012F0009B6903F48033002B09D1164B9B6903F4DF
:101300008023002B03D0144B1B6806209847114BF9
:101310005B6903F006037B60FB68002B15D0BB689C
:10132000002B12D07B68002B0FD00A4B9B6903F473
:101330008033002B09D1074B9B6903F48023002BDA
:1013400003D0054B1B68052098473B6800BF10374A
:10135000BD4680BD005400406C00002080B582B0C6
:1013600000AF394B5B6803F480737B60364B5B697D
:1013700003F001033B603B68002B0CD07B68002B23
:1013800009D0314B5B69304A23F4807353612F4B92
:101390001B68002098472C4B5B6903F002033B60FD
:1013A0003B68002B0CD07B68002B09D0264B5B6977
:1013B000254A23F400735361244B1B68012098478E
:1013C000214B5B6903F004033B603B68002B0CD0AE
:1013D0007B68002B09D01C4B5B691B4A23F480639C
:1013E00053611A4B1B6802209847174B5B6903F047
:1013F00008033B603B68002B0CD07B68002B09D0B6
:10140000114B5B69104A23F4006353610F4B1B6857
:10141000032098470C4B5B6903F020033B603B685B
:10142000002B0CD07B68002B09D0074B5B69064A68
:1014300023F480435361054B1B680520984700BF88
:101440000837BD4680BD00BF005400407400002036
:1014500080B584B000AF00233B60394B5B6803F478
:101460000073FB60364B5B6803F48063BB60344BF6
:101470005B6903F004037B60FB68002B0AD07B6888
:10148000002B07D02E4B2E4A1B6813602D4B1B6878
:10149000042098472A4B5B6903F001037B60FB68DB
:1014A000002B0CD07B68002B09D0254B9B6903F4E3
:1014B0008033002B03D1234B1B6801209847204B1E
:1014C0005B6903F007037B60FB68002B15D0BB68EA
:1014D000002B12D07B68002B0FD0194B9B6903F4B3
:1014E0008033002B09D1164B9B6903F48023002B1A
:1014F00003D0144B1B6806209847114B5B6903F01F
:1015000006037B60FB68002B15D0BB68002B12D054
:101510007B68002B0FD00C4B9B6903F48033002BAE
:1015200009D1074B9B6903F48023002B03D0054BA3
:101530001B68052098473B6800BF1037BD4680BD3B
:1015400000580040700000200054004080B582B078
:1015500000AF394B5B6803F480737B60364B5B698B
:1015600003F001033B603B68002B0CD07B68002B31
:1015700009D0314B5B69304A23F4807353612F4BA0
:101580001B68002098472C4B5B6903F002033B600B
:101590003B68002B0CD07B68002B09D0264B5B6985
:1015A000254A23F400735361244B1B68012098479C
:1015B000214B5B6903F004033B603B68002B0CD0BC
:1015C0007B68002B09D01E4B9B691D4A23F4806366
:1015D00093611A4B1B6802209847174B5B6903F015
:1015E00008033B603B68002B0CD07B68002B09D0C4
:1015F000114B5B69104A23F4006353610F4B1B6866
:10160000032098470C4B5B6903F020033B603B6869
:10161000002B0CD07B68002B09D0074B5B69064A76
:1016200023F480435361054B1B680520984700BF96
:101630000837BD4680BD00BF00580040780000203C
:101640000054004080B500AF024B1B68984700BFB4
:1016500080BD00BF7C00002080B500AF024B5B68FE
:10166000984700BF80BD00BF7C00002080B500AF60
:10167000024B1B68984700BF80BD00BF8C00002054
:1016800080B500AF024B5B68984700BF80BD00BFCC
:101690008C00002080B500AF024B9B68984700BFCC
:1016A00080BD00BF8C00002080B586B000AF284A06
:1016B00007F1100392E8030083E80300254A07F1CD
:1016C000080392E8030083E8030007F110031846BB
:1016D000FEF7B8FF07F110031846FFF7EEF807F121
:1016E00008031846FEF7AEFF4FF080433B6000232F
:1016F0007B7100233B713B461846FEF739FD07F12D
:1017000008031846FFF7ACF80346002B0BD107F18E
:10171000100300211846FFF7B7F83B465A21184638
:10172000FEF7D1FDEBE707F108031846FFF798F83D
:101730000346012BE3D107F1100301211846FFF7FF
:10174000A3F83B4600211846FEF7BDFDD7E700BFD2
:101750008C180008941800080D488546AFF30080E7
:101760000C480D490D4A002302E0D458C4500433FC
:10177000C4188C42F9D30A4A0A4C002301E01360D2
:101780000432A242FBD300F011F8FFF78DFFFEE711
:10179000005000200000002000000020A4180008D5
:1017A0000000002098000020FEE7000070B5002532
:1017B0000C4E0D4CA41BA410A54209D100F01AF840
:1017C00000250A4E0A4CA41BA410A54205D170BDE9
:1017D00056F8253098470135EEE756F825309847FA
:1017E0000135F2E79C1800089C1800089C180008B6
:1017F000A0180008F8B500BFF8BC08BC9E467047AA
:0C180000F8B500BFF8BC08BC9E4670475D
:10180C0000080140400008000008014040000601AB
:10181C00000801408000080000080140800006011B
:10182C00000C014001000800000C01400100060101
:10183C00000C014002000800000C014002000601EF
:10184C00000C014040000800000C01404000060163
:10185C00000C014080000800000C014080000601D3
:10186C00000C014000010800000C014000010601C1
:10187C00000C014000020800000C014000020601AF
:10188C000010014000200401000C01400002010086
:04189C0055010008EA
:0418A000310100080A
:04000005080017597F
:00000001FF
