:020000040800F2
:1000000000280020B10E0008010F0008010F0008B1
:10001000010F0008010F0008010F00080000000098
:10002000000000000000000000000000010F0008B8
:10003000010F000800000000010F0008010F000878
:10004000010F0008010F0008010F0008010F000850
:10005000010F0008010F0008D1040008F504000892
:10006000190500083D05000861050008010F00089A
:10007000010F0008010F0008010F0008010F000820
:10008000010F0008010F0008010F0008010F000810
:10009000010F0008010F0008010F00088505000886
:1000A000010F0008010F0008010F0008010F0008F0
:1000B000010F0008010F0008010F0008010F0008E0
:1000C000010F0008010F0008010F0008B50D00081E
:1000D000C90D0008DD0D0008F10D0008050E00082F
:1000E0002D060008010F000800000000010F0008A5
:1000F000010F0008010F0008010F0008010F0008A0
:10010000010F0008010F0008010F0008010F00088F
:10011000010F0008010F0008010F0008010F00087F
:10012000010F0008010F0008010F0008010F00086F
:1001300010B5054C237833B9044B13B10448AFF321
:1001400000800123237010BD340000200000000057
:100150004C0F000808B5034B1BB103490348AFF32C
:10016000008008BD00000000380000204C0F00088F
:1001700080B483B000AF0023FB710BE00023BB71A0
:1001800002E0BB790133BB71BB79FF2BF9D1FB795D
:100190000133FB71FB79312BF0D900BF0C37BD4621
:1001A00080BC704780B500AF0A4800F0F7FA0A48F3
:1001B00000F0F4FAFFF7DCFF084800F0EFFA084817
:1001C00000F0ECFA074800F0E9FA074800F0E6FA18
:1001D00000BF80BD000000200800002010000020AB
:1001E00018000020200000202800002080B500AF6B
:1001F0000121054800F0DCFBFFF7BAFF00210248AF
:1002000000F0D6FB00BF80BD0800002080B582B0A2
:1002100000AF0346FB7101212B4800F0C9FBFFF73B
:10022000A7FFFB791B11DBB203F00103DBB2194618
:10023000264800F0BDFBFB795B11DBB203F0010344
:10024000DBB21946224800F0B3FBFB799B11DBB20D
:1002500003F00103DBB219461E4800F0A9FBFB794D
:10026000DB09DBB219461C4800F0A2FBFFF7BEFF1A
:10027000FB7903F00103DBB21946144800F098FB48
:10028000FB795B10DBB203F00103DBB219461048C7
:1002900000F08EFBFB799B10DBB203F00103DBB2B5
:1002A00019460C4800F084FBFB79DB10DBB203F04D
:1002B0000103DBB21946084800F07AFBFFF796FF0E
:1002C00000BF0837BD4680BD0000002010000020A0
:1002D00018000020200000202800002080B500AF7A
:1002E000FFF760FF022000F009F8282000F006F870
:1002F0000C2000F003F800BF80BD000080B582B084
:1003000000AF0346FB7100212B4800F051FBFFF7C3
:100310002FFFFB791B11DBB203F00103DBB219469F
:10032000264800F045FBFB795B11DBB203F00103CB
:10033000DBB21946224800F03BFBFB799B11DBB294
:1003400003F00103DBB219461E4800F031FBFB79D4
:10035000DB09DBB219461C4800F02AFBFFF746FF19
:10036000FB7903F00103DBB21946144800F020FBCF
:10037000FB795B10DBB203F00103DBB219461048D6
:1003800000F016FBFB799B10DBB203F00103DBB23C
:1003900019460C4800F00CFBFB79DB10DBB203F0D4
:1003A0000103DBB21946084800F002FBFFF71EFF0D
:1003B00000BF0837BD4680BD0000002010000020AF
:1003C00018000020200000202800002080B500AF89
:1003D0000120FFF793FF044B00221A70034B012208
:1003E0001A7000BF80BD00BF500000203000002008
:1003F00080B582B000AF0346FB71164B1B780F2B04
:100400001AD9144B00221A70134B1B78022B05D1FA
:10041000114B01221A70FFF7D9FF17E00E4B1B7822
:100420000133DAB20C4B1A700B4B1A78094B1B785C
:100430001946104600F027F8FB791846FFF7E6FE4C
:10044000044B1B780133DAB2024B1A700837BD46F1
:1004500080BD00BF500000203000002080B582B079
:1004600000AF786007E07B681B781846FFF7C0FF95
:100470007B6801337B607B681B78002BF3D100BF66
:100480000837BD4680BD80B582B000AF03460A463E
:10049000FB711346BB71FB79012B08D1BB790F2B84
:1004A00005D8BB79803BDBB21846FFF727FFFB7905
:1004B000022B08D1BB790F2B05D8BB79403BDBB2AF
:1004C0001846FFF71BFF00BF0837BD4680BD000080
:1004D00080B500AF054B5B69044A43F001035361EB
:1004E000034B1B68984700BF80BD00BF000401405C
:1004F0005400002080B500AF054B5B69044A43F00F
:1005000002035361034B5B68984700BF80BD00BF87
:10051000000401405400002080B500AF054B5B692A
:10052000044A43F004035361034B9B68984700BFA0
:1005300080BD00BF000401405400002080B500AF22
:10054000054B5B69044A43F008035361034BDB68C6
:10055000984700BF80BD00BF000401405400002048
:1005600080B500AF054B5B69044A43F0100353614B
:10057000034B1B69984700BF80BD00BF00040140CA
:100580005400002080B500AF264B5B6903F02003C8
:10059000002B08D0234B5B69224A43F020035361B0
:1005A000214B5B6998471F4B5B6903F04003002BAD
:1005B00008D01C4B5B691B4A43F0400353611A4B44
:1005C0009B699847174B5B6903F08003002B08D0A9
:1005D000144B5B69134A43F080035361124BDB6990
:1005E0009847104B5B6903F48073002B08D00D4BC8
:1005F0005B690C4A43F4807353610B4B1B6A984749
:10060000084B5B6903F40073002B08D0054B5B6952
:10061000044A43F400735361034B5B6A984700BF7D
:1006200080BD00BF000401405400002080B500AF31
:10063000264B5B6903F48063002B08D0234B5B6976
:10064000224A43F480635361214B9B6A98471F4BB6
:100650005B6903F40063002B08D01C4B5B691B4AE9
:1006600043F4006353611A4BDB6A9847174B5B698D
:1006700003F48053002B08D0144B5B69134A43F4F6
:1006800080535361124B1B6B9847104B5B6903F40B
:100690000053002B08D00D4B5B690C4A43F4005308
:1006A00053610B4B5B6B9847084B5B6903F48043CA
:1006B000002B08D0054B5B69044A43F48043536127
:1006C000034B9B6B984700BF80BD00BF00040140F7
:1006D0005400002080B483B000AF0346FB80FB8849
:1006E000802B42D0802B11DC082B36D0082B06DC67
:1006F000022B2ED0042B2ED0012B28D047E0202B0C
:100700002FD0402B2FD0102B29D040E0B3F5006F15
:1007100033D0B3F5006F09DCB3F5007F29D0B3F512
:10072000806F28D0B3F5807F21D030E0B3F5005F33
:1007300027D0B3F5005F03DCB3F5805F1FD026E060
:10074000B3F5804F1FD0B3F5004F1ED01FE000233C
:100750001EE004231CE008231AE00C2318E01023F9
:1007600016E0142314E0182312E01C2310E00023E9
:100770000EE004230CE008230AE00C2308E0102319
:1007800006E0142304E0182302E01C2300E0002309
:1007900018460C37BD4680BC7047000090B585B048
:1007A00000AF78607B681B687A4A93420DD17A4B20
:1007B0001B78012B09D0794B9B69784A43F00403DD
:1007C0009361754B01221A704AE07B681B68744A7A
:1007D00093420DD1704B5B78012B09D06F4B9B6915
:1007E0006E4A43F0080393616B4B01225A7037E065
:1007F0007B681B686B4A93420DD1674B9B78012B3A
:1008000009D0664B9B69654A43F010039361624BC4
:1008100001229A7024E07B681B68634A93420DD1E1
:100820005D4BDB78012B09D05C4B9B695B4A43F045
:1008300020039361584B0122DA7011E07B681B683A
:100840005A4A93420CD1544B1B79012B08D0534B7D
:100850009B69524A43F0400393614F4B01221A7146
:100860007B689B79052B05D94C4B9B694B4A43F020
:10087000010393610023BB607B689B88FF2B02D838
:100880007B681B6802E07B681B680433BB60042341
:10089000FB737B689B881846FFF71CFF03461A46CC
:1008A0000F239340DA43BB681B681A40BB681A6089
:1008B0007B689B79032B14D97B689B79072B10D815
:1008C0000023FB737B689B79043B9B005AB27B68D7
:1008D000DB795BB213435BB2DBB203F00F03FB7354
:1008E00037E00023FB737B689B79002B03D07B6888
:1008F0009B79012B07D17B689B799B00DBB203F0CE
:100900000F03FB7325E07B689B79022B03D07B6888
:100910009B79032B1BD10823FB737B689B79022BEC
:100920000AD17B681B68DA687B689B8819467B68FC
:100930001B680A43DA600CE07B681B68DA687B6836
:100940009B8819467B681B680A43DA6001E0042330
:10095000FB73FC7B7B689B881846FFF7BBFE034656
:1009600004FA03F3DA43BB681B681A40BB681A60D9
:10097000FC7B7B689B881846FFF7ACFE034604FAB5
:1009800003F2BB681B681A43BB681A6000BF1437C8
:10099000BD4690BD000801409000002000100240BC
:1009A000000C0140001001400014014000180140FB
:1009B00080B483B000AF78600B46FB70FB78012BEE
:1009C00005D17B689A887B681B681A6104E07B68A4
:1009D0009A887B681B685A6100BF0C37BD4680BC93
:1009E0007047000080B485B000AF78600023FB81C1
:1009F0000023BB817B681B68424A934206D1424B6D
:100A00009B69414A43F48053936105E03E4BDB69A7
:100A10003D4A43F48043D3617B689A88FB89134342
:100A2000FB817B68DB881BB223F46F5323F03F0309
:100A30001AB2B7F90E3013431BB2FB817B689B8857
:100A4000042B04D17B685A8AFB891343FB817B68A2
:100A50005A89FB891343FB817B68DA897B689B8910
:100A600013439AB2FB891343FB817B681A89FB8984
:100A70001343FB817B681B8A002B03D07B681B8A96
:100A8000042B05D17B681A8ABB891343BB8104E020
:100A90007B681A8AFB891343FB817B689B8A002B46
:100AA0001ED07B689A8ABB891343BB817B681B6815
:100AB000144A93420AD17B689B69144A1360144B11
:100AC0001B68134A43F00803136009E07B689B69C5
:100AD0000E4A53600E4B1B680D4A43F0100313601F
:100AE000FB8943F04003FB817B681B68FA891A602D
:100AF0007B681B68BA895A6000BF1437BD4680BC4A
:100B0000704700BF003001400010024098000020F4
:100B100004E100E080B58AB000AF78607B681B68B4
:100B2000634A934210D1634BBB601023BB81614B7E
:100B30003B612023BB825F4BBB614023BB835D4B8A
:100B40003B628023BB8413E05B4BBB604FF480535C
:100B5000BB81594B3B614FF40053BB82564BBB6189
:100B60004FF48043BB83544B3B624FF40043BB8440
:100B70007B689B88042B04D10623BB750123FB757E
:100B800007E07B689B88002B03D10123BB75002302
:100B9000FB7507F110031846FFF700FE7B689B8882
:100BA000042B10D17B68DB88B3F5806F24D006233B
:100BB00087F82630012387F8273007F120031846ED
:100BC000FFF7ECFD18E07B68DB88B3F5404F13D0EE
:100BD0007B68DB88B3F5004F0ED07B68DB88042B85
:100BE0000AD0012387F82630002387F8273007F141
:100BF00020031846FFF7D2FD7B689B88042B17D192
:100C00007B68DB88B3F5404F20D07B68DB88B3F589
:100C1000004F1BD07B68DB88042B17D00123BB77E8
:100C20000023FB7707F118031846FFF7B7FD0DE027
:100C30007B68DB88B3F5806F08D00623BB77012380
:100C4000FB7707F118031846FFF7A8FD7B689B8820
:100C5000042B1BD17B681B8A042B09D10623BB7391
:100C60000123FB7307F108031846FFF797FD1AE00D
:100C70007B681B8A002B16D10123BB730023FB73F7
:100C800007F108031846FFF789FD0CE07B681B8A13
:100C9000002B08D10123BB730023FB7307F108036A
:100CA0001846FFF77BFD00BF2837BD4680BD00BF5B
:100CB0000030014000080140000C014080B485B0C4
:100CC00000AFF860B9601346FB71FB79012B07D1C7
:100CD00000BFFB681B689B6803F00203002BF8D081
:100CE000BB681A88FB681B68DA6000BF1437BD4612
:100CF00080BC704780B485B000AFF860B96013461F
:100D0000FB71FB79012B07D100BFFB681B689B6857
:100D100003F00103002BF8D0FB681B68DB689AB274
:100D2000BB681A8000BF1437BD4680BC704780B5D1
:100D300084B000AFF860B9601346FB71FB791A46C6
:100D4000B968F868FFF7BAFFFB791A46B968F8681E
:100D5000FFF7D0FF00BF1037BD4680BD80B584B01F
:100D600000AF786039600023FB7307F10C030122A8
:100D700019467868FFF7DBFF0FE0B989FB7B3A681B
:100D80001344CAB21A7007F10C030122194678689D
:100D9000FFF7CDFFFB7B0133FB73BB89232BECD12A
:100DA000FB7B3A68134400221A7000BF1037BD461F
:100DB00080BD000080B500AF024B1B68984700BFA4
:100DC00080BD00BF9800002080B500AF024B5B687B
:100DD000984700BF80BD00BF9800002080B500AFDD
:100DE000024B1B68984700BF80BD00BFA0000020D9
:100DF00080B500AF024B5B68984700BF80BD00BF65
:100E0000A000002080B500AF024B9B68984700BF50
:100E100080BD00BFA000002080B59AB000AF00F0F8
:100E200015F83B1D19460748FFF798FF064B1B783E
:100E3000012B06D13B1D1846FFF710FB024B002289
:100E40001A70FEE7AC0000203100002080B500AF32
:100E5000154B164A1A60144B0122DA81124B0222FA
:100E60009A81114B00225A810F4B00221A810E4B9E
:100E700010225A820C4B4FF40042DA800A4B0022B7
:100E80009A80094B00221A82074B00229A82064B55
:100E900000229A61FFF722FA0348FFF7A3FD0248F8
:100EA000FFF738FE00BF80BDAC00002000300140DD
:100EB0000D488546AFF300800C480D490D4A0023CC
:100EC00002E0D458C4500433C4188C42F9D30A4AFF
:100ED0000A4C002301E013600432A242FBD300F06D
:100EE00011F8FFF799FFFEE700280020000000201E
:100EF000340000206C0F000834000020C8000020DF
:100F0000FEE7000070B500250C4E0D4CA41BA4108C
:100F1000A54209D100F01AF800250A4E0A4CA41B7C
:100F2000A410A54205D170BD56F82530984701356B
:100F3000EEE756F8253098470135F2E7640F0008D0
:100F4000640F0008640F0008680F0008F8B500BFC0
:100F5000F8BC08BC9E467047F8B500BFF8BC08BC9A
:040F60009E467047F2
:040F6400550100082B
:040F6800310100084B
:100F6C00000C014000010401000C014000040401CC
:100F7C00000C014010000401000C01402000040191
:100F8C00000C014040000401000C014080000401F1
:040F9C00010100004F
:0400000508000EB130
:00000001FF
