:020000040800F2
:1000000000280020CD1300081D1400081D1400084E
:100010001D1400081D1400081D1400080000000035
:100020000000000000000000000000001D14000897
:100030001D140008000000001D1400081D14000815
:100040001D1400081D1400081D1400081D140008CC
:100050001D1400081D140008AD020008D10200089C
:10006000F5020008190300083D0300081D140008EC
:100070001D1400081D1400081D1400081D1400089C
:100080001D1400081D1400081D1400081D1400088C
:100090001D1400081D1400081D1400086103000849
:1000A0001D1400081D1400081D1400081D1400086C
:1000B0008D070008F1070008490800083D0E0008F8
:1000C000350F00082910000825110008CD1200087E
:1000D000E1120008F5120008091300081D130008BA
:1000E000090400081D140008000000001D14000889
:1000F0001D1400081D1400081D1400081D1400081C
:100100001D1400081D1400081D1400081D1400080B
:100110001D1400081D1400081D1400081D140008FB
:100120001D1400081D1400081D1400081D140008EB
:1001300010B5054C237833B9044B13B10448AFF321
:1001400000800123237010BD00000020000000008B
:100150006814000808B5034B1BB103490348AFF30B
:10016000008008BD000000000400002068140008A2
:1001700080B500AF0C4B0D4A1A600B4B00229A80E1
:10018000094B0022DA80084B094A9A60064B00228C
:100190009A81054B0022DA81034B00225A820248E1
:1001A00000F0B4FB00BF80BD1C00002000540040E4
:1001B000A086010080B5ADF5846D02AF07F108039C
:1001C00019603B1D1A6007F10E0302461A8007F101
:1001D0000E031B881B0A9BB2DAB207F110031A70D8
:1001E00007F10E031B88DAB207F110035A700023DF
:1001F000C7F8143411E0D7F8143407F10802126874
:100200001A44D7F814340233117807F11002D1548C
:10021000D7F814340133C7F81434D7F814343A1D1E
:1002200012689A42E7D83B1D1B68991C07F110021F
:1002300001230193002300930B462A21044800F078
:1002400049FD0023184607F58367BD4680BD00BF02
:100250001C00002080B588B002AF0346B9607A6008
:10026000FB81FB891B0A9BB2DBB23B75FB89DBB2CE
:100270007B7507F1140200230193002300930223EE
:100280002A21094800F026FD012301930123009350
:100290007B68BA682A21044800F091FD00231846C3
:1002A0001837BD4680BD00BF1C00002080B500AFE0
:1002B000054B5B69044A43F001035361034B1B6820
:1002C000984700BF80BD00BF0004014040000020EF
:1002D00080B500AF054B5B69044A43F002035361EC
:1002E000034B5B68984700BF80BD00BF000401401E
:1002F0004000002080B500AF054B5B69044A43F025
:1003000004035361034B9B68984700BF80BD00BF47
:10031000000401404000002080B500AF054B5B6940
:10032000044A43F008035361034BDB68984700BF5E
:1003300080BD00BF000401404000002080B500AF38
:10034000054B5B69044A43F010035361034B1B697F
:10035000984700BF80BD00BF00040140400000205E
:1003600080B500AF264B5B6903F02003002B08D05B
:10037000234B5B69224A43F020035361214B5B69A5
:1003800098471F4B5B6903F04003002B08D01C4BC0
:100390005B691B4A43F0400353611A4B9B699847C2
:1003A000174B5B6903F08003002B08D0144B5B698B
:1003B000134A43F080035361124BDB699847104B9B
:1003C0005B6903F48073002B08D00D4B5B690C4A0A
:1003D00043F4807353610B4B1B6A9847084B5B696E
:1003E00003F40073002B08D0054B5B69044A43F407
:1003F00000735361034B5B6A984700BF80BD00BF29
:10040000000401404000002080B500AF264B5B692E
:1004100003F48063002B08D0234B5B69224A43F42A
:1004200080635361214B9B6A98471F4B5B6903F4C0
:100430000063002B08D01C4B5B691B4A43F400632C
:1004400053611A4BDB6A9847174B5B6903F480537F
:10045000002B08D0144B5B69134A43F4805353615B
:10046000124B1B6B9847104B5B6903F40053002B36
:1004700008D00D4B5B690C4A43F4005353610B4B9E
:100480005B6B9847084B5B6903F48043002B08D0F3
:10049000054B5B69044A43F480435361034B9B6BF8
:1004A000984700BF80BD00BF00040140400000200D
:1004B00080B483B000AF0346FB80FB88802B42D022
:1004C000802B11DC082B36D0082B06DC022B2ED01B
:1004D000042B2ED0012B28D047E0202B2FD0402BEF
:1004E0002FD0102B29D040E0B3F5006F33D0B3F5F7
:1004F000006F09DCB3F5007F29D0B3F5806F28D0F9
:10050000B3F5807F21D030E0B3F5005F27D0B3F59D
:10051000005F03DCB3F5805F1FD026E0B3F5804FAA
:100520001FD0B3F5004F1ED01FE000231EE00423B0
:100530001CE008231AE00C2318E0102316E0142313
:1005400014E0182312E01C2310E000230EE0042323
:100550000CE008230AE00C2308E0102306E0142333
:1005600004E0182302E01C2300E0002318460C37A7
:10057000BD4680BC7047000090B585B000AF786084
:100580007B681B687A4A93420DD17A4B1B78012B0A
:1005900009D0794B9B69784A43F004039361754B0A
:1005A00001221A704AE07B681B68744A93420DD19D
:1005B000704B5B78012B09D06F4B9B696E4A43F0FF
:1005C000080393616B4B01225A7037E07B681B680C
:1005D0006B4A93420DD1674B9B78012B09D0664B38
:1005E0009B69654A43F010039361624B01229A7044
:1005F00024E07B681B68634A93420DD15D4BDB7836
:10060000012B09D05C4B9B695B4A43F0200393614B
:10061000584B0122DA7011E07B681B685A4A9342FA
:100620000CD1544B1B79012B08D0534B9B69524A78
:1006300043F0400393614F4B01221A717B689B7911
:10064000052B08D94C4B9B694B4A43F0010393613E
:10065000484B01225A710023BB607B689B88FF2BAB
:1006600002D87B681B6802E07B681B680433BB60B0
:100670000023FB737B689B79032B12D97B689B79E2
:10068000072B0ED87B689B79043B9B005AB27B6892
:10069000DB795BB213435BB2DBB203F00F03FB7396
:1006A00036E07B689B79002B03D07B689B79012B1C
:1006B00007D17B689B799B00DBB203F00F03FB73D0
:1006C00026E07B689B79022B03D07B689B79032B08
:1006D0001CD10823FB737B689B79022B0AD17B68B2
:1006E0001B68DA687B689B8819467B681B680A432D
:1006F000DA600DE07B681B68DA687B689B88DB4307
:1007000019467B681B680A40DA6001E00423FB732A
:100710007B689B881846FFF7CBFE03461A460F23DB
:100720009340DA43BB681B681A40BB681A60FC7BC5
:100730007B689B881846FFF7BBFE034604FA03F369
:10074000DA43BB681B681A40BB681A60FC7B7B6895
:100750009B881846FFF7ACFE034604FA03F2BB6819
:100760001B681A43BB681A6000BF1437BD4690BDB2
:10077000000801407C00002000100240000C0140F5
:1007800000100140001401400018014080B500AF86
:100790004FF080431B6903F00103002B12D04FF090
:1007A00080431B684FF0804223F0010313604FF039
:1007B00080431B694FF0804223F0010313610B4B10
:1007C0001B6898474FF080431B6903F04003002BE0
:1007D0000AD04FF080431B694FF0804223F0400362
:1007E0001361024B1B68984700BF80BD8400002046
:1007F00080B500AF124B1B6903F00103002B0ED034
:100800000F4B1B680E4A23F0010313600C4B1B694E
:100810000B4A23F0010313610A4B5B689847084BAE
:100820001B6903F04003002B08D0054B1B69044AE9
:1008300023F040031361034B5B68984700BF80BD02
:10084000000400408400002080B500AF124B1B69FB
:1008500003F00103002B0ED00F4B1B680E4A23F050
:10086000010313600C4B1B690B4A23F00103136156
:100870000A4B9B689847084B1B6903F04003002B09
:1008800008D0054B1B69044A23F040031361034B56
:100890009B68984700BF80BD00080040840000208E
:1008A00080B586B000AF78607B681B68154A9342BC
:1008B00008D1154B3B618023BB82134BBB604023A7
:1008C000BB8109E0104B3B614FF40063BB820E4BD0
:1008D000BB604FF48063BB810723BB750123FB75AD
:1008E0000723BB730123FB7307F108031846FFF7C7
:1008F00043FE07F110031846FFF73EFE00BF18370E
:10090000BD4680BD00540040000C014080B588B059
:1009100000AF786007F10C0300221A605A609A60F9
:100920000023FB6100F0B8FCF861FB69504AA2FBB0
:1009300003239B0CFB61FB699BB2FB617B681B681B
:100940004C4A934206D14C4BDB694B4A43F40013AB
:10095000D3610AE07B681B68484A934205D1464B45
:10096000DB69454A43F48003D3617B689B88002B95
:1009700079D1FA89FB699BB213439BB2FB81BA8A96
:100980007B68DB8813439BB2BB82FB693C4A02FB5A
:1009900003F27B689B685B00B2FBF3F3BB61BA8A2E
:1009A000BB699BB213439BB2BB82FA8AFB699BB2C1
:1009B00001339BB213439BB2FB82BA897B68598A8D
:1009C0007B689B8A0B4399B27B689B880B439BB2E5
:1009D00013439BB2BB813A8A7B689B8913439BB2CA
:1009E0003B827A8A7B68DB8913439BB27B823B8A9A
:1009F0001AB27B681B7C5B001BB213431BB29BB219
:100A00003B827B68DB89012B09D17B8A1AB27B6828
:100A10005B7C5B001BB213431BB29BB27B82FA89E7
:100A20007B681B685A603A8A7B681B689A607A8A7E
:100A30007B681B68DA60BA8A7B681B68DA61FA8AAD
:100A40007B681B681A62BA897B681B681A607868C1
:100A5000FFF726FF7B681B681A687B681B6842F0FB
:100A600001021A6000BF00BF2037BD4680BD00BF35
:100A700083DE1B4300540040001002400058004039
:100A800040420F0080B485B000AF78600B46FB7029
:100A90000023FB73FB780F2B0FD87B681B685B6907
:100AA000FA78012101FA02F21A40FB7822FA03F3E4
:100AB000002B13D00123FB7310E07B681B689B693C
:100AC000FA78103A012101FA02F21A40FB78103B41
:100AD00022FA03F3002B01D00123FB73FB7B1846A2
:100AE0001437BD4680BC704780B582B000AF7860D7
:100AF0000B46FB701346BB70BB78012B07D000BFC1
:100B000011217868FFF7BEFF0346002BF8D1FB7870
:100B1000012B08D17B681B681A687B681B6842F44C
:100B200080721A6007E07B681B681A687B681B6824
:100B300022F480721A6000BF0837BD4680BD80B4C1
:100B400083B000AF78600B46FB70FB78012B08D1B7
:100B50007B681B681A687B681B6842F400721A6025
:100B600007E07B681B681A687B681B6822F40072C8
:100B70001A6000BF0C37BD4680BC704780B483B09C
:100B800000AF78600B467B8013467B707B885B00F0
:100B90007B807B789AB27B8813437B807B681B6861
:100BA0007A881A6100BF0C37BD4680BC704780B59B
:100BB00086B000AFF860B9607A6000237B6111E015
:100BC0007B69BA6813441A78FB681B681A6100BF16
:100BD0000721F868FFF756FF0346002BF8D07B6922
:100BE00001337B617B697A689A42E9D800BF183784
:100BF000BD4680BD80B586B000AFF860B9607A6050
:100C0000FB7000233B617B68012B36D9FB681B68B6
:100C10005B693B61FB681B689B693B6100237B61EF
:100C200026E07B685A1E7B699A420ED1FB681B68DE
:100C30001A68FB681B6822F480621A60FB78012B3B
:100C400003D10121F868FFF77AFF00BF0621F86899
:100C5000FFF718FF0346002BF8D0FB681B681969E3
:100C60007B69BA681344CAB21A707B6901337B612D
:100C70007B697A689A42D4D827E07B68012B24D11B
:100C8000FB681B681A68FB681B6822F480621A60A4
:100C9000FB681B685B693B61FB681B689B693B6188
:100CA00000BF0621F868FFF7EDFE0346002BF8D0E1
:100CB000FB78012B03D10121F868FFF740FFFB68A7
:100CC0001B681B69DAB2BB681A703B6900BF183732
:100CD000BD4680BD80B586B000AFF8607A603B60ED
:100CE0000B467B8100237B6197F820301A46012157
:100CF000F868FFF7F9FE00BF0021F868FFF7C2FEB1
:100D00000346002BF8D0FB681B685B697B617B891D
:100D100000221946F868FFF731FF00BF0121F8688B
:100D2000FFF7B0FE0346002BF8D0FB681B685B6939
:100D30007B61FB681B689B697B6100BF1021F868C1
:100D4000FFF7A0FE0346002BF8D000BF1121F86882
:100D5000FFF798FE0346002BF8D000BF1221F86879
:100D6000FFF790FE0346002BF8D000BF0721F8687C
:100D7000FFF788FE0346002BF8D03A687968F868D8
:100D8000FFF715FF00BF0721F868FFF77BFE03465A
:100D9000002BF8D000BF0221F868FFF773FE03466E
:100DA000002BF8D097F82430012B03D10121F868EB
:100DB000FFF7C5FE7B6900BF1837BD4680BD80B513
:100DC00086B000AFF8607A603B600B467B81002301
:100DD0007B61FB681B681A68FB681B6842F48062D1
:100DE0001A6097F820301A460121F868FFF77CFE58
:100DF00000BF0021F868FFF745FE0346002BF8D03E
:100E0000FB681B685B697B617B8901221946F86876
:100E1000FFF7B4FE00BF0121F868FFF733FE034679
:100E2000002BF8D097F824303A687968F868FFF713
:100E3000E1FE7B6900BF1837BD4680BD80B584B038
:100E400000AF00233B60394B5B6803F40073FB6029
:100E5000364B5B6803F48063BB60344B5B6903F023
:100E600004037B60FB68002B0AD07B68002B07D053
:100E70002E4B2E4A1B6813602D4B1B68042098478D
:100E80002A4B5B6903F001037B60FB68002B0CD0ED
:100E90007B68002B09D0254B9B6903F48033002B22
:100EA00003D1234B1B6801209847204B5B6903F05B
:100EB00007037B60FB68002B15D0BB68002B12D0AA
:100EC0007B68002B0FD0194B9B6903F48033002BF8
:100ED00009D1164B9B6903F48023002B03D0144BDC
:100EE0001B6806209847114B5B6903F006037B6083
:100EF000FB68002B15D0BB68002B12D07B68002B41
:100F00000FD00A4B9B6903F48033002B09D1074BA8
:100F10009B6903F48023002B03D0054B1B6805203D
:100F200098473B6800BF1037BD4680BD0054004065
:100F30009000002080B582B000AF394B5B6803F4AD
:100F400080737B60364B5B6903F001033B603B6859
:100F5000002B0CD07B68002B09D0314B5B69304AE9
:100F600023F4807353612F4B1B68002098472C4B50
:100F70005B6903F002033B603B68002B0CD07B688D
:100F8000002B09D0264B5B69254A23F4007353617B
:100F9000244B1B6801209847214B5B6903F0040335
:100FA0003B603B68002B0CD07B68002B09D01C4BAE
:100FB0005B691B4A23F4806353611A4B1B68022050
:100FC0009847174B5B6903F008033B603B68002BB5
:100FD0000CD07B68002B09D0114B5B69104A23F4BD
:100FE000006353610F4B1B68032098470C4B5B69F0
:100FF00003F020033B603B68002B0CD07B68002B88
:1010000009D0074B5B69064A23F480435361054BC3
:101010001B680520984700BF0837BD4680BD00BF4C
:10102000005400409800002080B584B000AF002339
:101030003B60394B5B6803F40073FB60364B5B68C5
:1010400003F48063BB60344B5B6903F004037B6093
:10105000FB68002B0AD07B68002B07D02E4B2E4A52
:101060001B6813602D4B1B68042098472A4B5B6953
:1010700003F001037B60FB68002B0CD07B68002B26
:1010800009D0254B9B6903F48033002B03D1234BFC
:101090001B6801209847204B5B6903F007037B60C6
:1010A000FB68002B15D0BB68002B12D07B68002B8F
:1010B0000FD0194B9B6903F48033002B09D1164BD9
:1010C0009B6903F48023002B03D0144B1B6806207C
:1010D0009847114B5B6903F006037B60FB68002BAC
:1010E00015D0BB68002B12D07B68002B0FD00C4BA7
:1010F0009B6903F48033002B09D1074B9B6903F4F0
:101100008023002B03D0054B1B68052098473B68C4
:1011100000BF1037BD4680BD00580040940000203D
:101120000054004080B582B000AF394B5B6803F4D7
:1011300080737B60364B5B6903F001033B603B6867
:10114000002B0CD07B68002B09D0314B5B69304AF7
:1011500023F4807353612F4B1B68002098472C4B5E
:101160005B6903F002033B603B68002B0CD07B689B
:10117000002B09D0264B5B69254A23F40073536189
:10118000244B1B6801209847214B5B6903F0040343
:101190003B603B68002B0CD07B68002B09D01E4BBA
:1011A0009B691D4A23F4806393611A4B1B680220DC
:1011B0009847174B5B6903F008033B603B68002BC3
:1011C0000CD07B68002B09D0114B5B69104A23F4CB
:1011D000006353610F4B1B68032098470C4B5B69FE
:1011E00003F020033B603B68002B0CD07B68002B96
:1011F00009D0074B5B69064A23F480435361054BD2
:101200001B680520984700BF0837BD4680BD00BF5A
:10121000005800409C0000200054004080B400AF03
:101220000D4B5B689B0803F00303032B10D801A24E
:1012300052F823F045120008491200084D12000828
:1012400051120008054B03E0054B01E0044BFFE79A
:101250001846BD4680BC70470010024000127A005C
:101260000024F40080B582B000AFFFF7D7FF01463D
:10127000074B5B681B0903F00F03064AD35C21FA96
:1012800003F37B607B6818460837BD4680BD00BF0E
:10129000001002409014000880B582B000AFFFF744
:1012A000E1FF0146074B5B681B0A03F00703064A90
:1012B000D35C21FA03F37B607B6818460837BD4690
:1012C00080BD00BF001002408814000880B500AF48
:1012D000024B1B68984700BF80BD00BFA0000020E4
:1012E00080B500AF024B5B68984700BF80BD00BF70
:1012F000A000002080B500AF024B1B68984700BFDC
:1013000080BD00BFA800002080B500AF024B5B6825
:10131000984700BF80BD00BFA800002080B500AF87
:10132000024B9B68984700BF80BD00BFA80000200B
:1013300080B584B000AF244A07F1080392E80300A7
:1013400018600433198002330A0C1A703B460022DD
:101350001A60C3F80320FEF70BFF07F1080307220A
:101360001946AF20FEF726FF3B4607221946AF205D
:10137000FEF770FF0A233B720B237B720C23BB72B8
:101380000D23FB7207F108030422194640F6FF7093
:10139000FEF710FF3B460422194640F6FF70FEF7A9
:1013A00059FFAB233B7207F108030122194641F2B2
:1013B0003420FEF7FFFE3B460122194641F234205D
:1013C000FEF748FFFEE700BF801400080D48854681
:1013D000AFF300800C480D490D4A002302E0D458B9
:1013E000C4500433C4188C42F9D30A4A0A4C00236F
:1013F00001E013600432A242FBD300F011F8FFF7C2
:1014000097FFFEE7002800200000002000000020D9
:10141000A814000800000020B4000020FEE700002F
:1014200070B500250C4E0D4CA41BA410A54209D18B
:1014300000F01AF800250A4E0A4CA41BA410A5427D
:1014400005D170BD56F8253098470135EEE756F8BE
:10145000253098470135F2E7A0140008A0140008D1
:10146000A0140008A4140008F8B500BFF8BC08BC1C
:101470009E467047F8B500BFF8BC08BC9E46704752
:101480000102030405060700000000000102030436
:101490000000000000000000010203040607080924
:0414A00055010008EA
:0414A400310100080A
:04000005080013CD0F
:00000001FF
