:020000040800F2
:1000000000500020DD1000082D1100082D110008FF
:100010002D1100082D1100082D110008000000000E
:100020000000000000000000000000002D1100088A
:100030002D110008000000002D1100082D110008EE
:100040002D1100082D1100082D1100082D11000898
:100050002D1100082D1100080D02000831020008C2
:1000600055020008790200089D0200082D110008C1
:100070002D1100082D1100082D1100082D11000868
:100080002D1100082D1100082D1100082D11000858
:100090002D1100082D1100082D110008C1020008C3
:1000A0002D1100082D1100082D1100082D11000838
:1000B000F506000859070008B1070008150E0008EA
:1000C000E10E0008ED0E0008990F00085510000819
:1000D000691000087D10000891100008A5100008A4
:1000E000690300082D110008000000002D11000810
:1000F0002D1100082D1100082D1100082D110008E8
:100100002D1100082D1100082D1100082D110008D7
:100110002D1100082D1100082D1100082D110008C7
:100120002D1100082D1100082D1100082D110008B7
:1001300010B5054C237833B9044B13B10448AFF321
:1001400000800123237010BD080000200000000083
:100150007811000808B5034B1BB103490348AFF3FE
:10016000008008BD000000000C000020781100088D
:1001700080B500AF0C4B0D4A1A600B4B00229A80E1
:10018000094B0022DA80084B094A9A60064B00228C
:100190009A81054B0022DA81034B00225A820248E1
:1001A00000F068FB00BF80BD240000200054004028
:1001B000A086010080B588B002AF0346B9607A60BE
:1001C000FB81FB891B0A9BB2DBB23B75FB89DBB26F
:1001D0007B7507F11402002301930023009302238F
:1001E0005021094800F0F3FC0123019301230093FF
:1001F0007B68BA685021044800F071FD002318465E
:100200001837BD4680BD00BF2400002080B500AF78
:10021000054B5B69044A43F001035361034B1B68C0
:10022000984700BF80BD00BF00040140440000208B
:1002300080B500AF054B5B69044A43F0020353618C
:10024000034B5B68984700BF80BD00BF00040140BE
:100250004400002080B500AF054B5B69044A43F0C1
:1002600004035361034B9B68984700BF80BD00BFE8
:10027000000401404400002080B500AF054B5B69DD
:10028000044A43F008035361034BDB68984700BFFF
:1002900080BD00BF000401404400002080B500AFD5
:1002A000054B5B69044A43F010035361034B1B6920
:1002B000984700BF80BD00BF0004014044000020FB
:1002C00080B500AF264B5B6903F02003002B08D0FC
:1002D000234B5B69224A43F020035361214B5B6946
:1002E00098471F4B5B6903F04003002B08D01C4B61
:1002F0005B691B4A43F0400353611A4B9B69984763
:10030000174B5B6903F08003002B08D0144B5B692B
:10031000134A43F080035361124BDB699847104B3B
:100320005B6903F48073002B08D00D4B5B690C4AAA
:1003300043F4807353610B4B1B6A9847084B5B690E
:1003400003F40073002B08D0054B5B69044A43F4A7
:1003500000735361034B5B6A984700BF80BD00BFC9
:10036000000401404400002080B500AF264B5B69CB
:1003700003F48063002B08D0234B5B69224A43F4CB
:1003800080635361214B9B6A98471F4B5B6903F461
:100390000063002B08D01C4B5B691B4A43F40063CD
:1003A00053611A4BDB6A9847174B5B6903F4805320
:1003B000002B08D0144B5B69134A43F480535361FC
:1003C000124B1B6B9847104B5B6903F40053002BD7
:1003D00008D00D4B5B690C4A43F4005353610B4B3F
:1003E0005B6B9847084B5B6903F48043002B08D094
:1003F000054B5B69044A43F480435361034B9B6B99
:10040000984700BF80BD00BF0004014044000020A9
:1004100080B483B000AF0346FB80FB88802B42D0C2
:10042000802B11DC082B36D0082B06DC022B2ED0BB
:10043000042B2ED0012B28D047E0202B2FD0402B8F
:100440002FD0102B29D040E0B3F5006F33D0B3F597
:10045000006F09DCB3F5007F29D0B3F5806F28D099
:10046000B3F5807F21D030E0B3F5005F27D0B3F53E
:10047000005F03DCB3F5805F1FD026E0B3F5804F4B
:100480001FD0B3F5004F1ED01FE000231EE0042351
:100490001CE008231AE00C2318E0102316E01423B4
:1004A00014E0182312E01C2310E000230EE00423C4
:1004B0000CE008230AE00C2308E0102306E01423D4
:1004C00004E0182302E01C2300E0002318460C3748
:1004D000BD4680BC7047000090B585B000AF786025
:1004E0007B681B687C4A93420DD17C4B1B78012BA7
:1004F00009D07B4B9B697A4A43F004039361774BA5
:1005000001221A704AE07B681B68764A93420DD13B
:10051000724B5B78012B09D0714B9B69704A43F099
:10052000080393616D4B01225A7037E07B681B68AA
:100530006D4A93420DD1694B9B78012B09D0684BD2
:100540009B69674A43F010039361644B01229A70E0
:1005500024E07B681B68654A93420DD15F4BDB78D2
:10056000012B09D05E4B9B695D4A43F020039361E8
:100570005A4B0122DA7011E07B681B685C4A934297
:100580000CD1564B1B79012B08D0554B9B69544A13
:1005900043F040039361514B01221A717B689B79B0
:1005A000052B08D94E4B9B694D4A43F001039361DB
:1005B0004A4B01225A710023BB607B689B88FF2B4A
:1005C00002D87B681B6802E07B681B680433BB6051
:1005D0000423FB737B689B881846FFF719FF0346CB
:1005E0001A460F239340DA43BB681B681A40BB6866
:1005F0001A607B689B79032B14D97B689B79072B46
:1006000010D80023FB737B689B79043B9B005AB294
:100610007B68DB795BB213435BB2DBB203F00F03A1
:10062000FB7337E00023FB737B689B79002B03D0BF
:100630007B689B79012B07D17B689B799B00DBB2A0
:1006400003F00F03FB7325E07B689B79022B03D03B
:100650007B689B79032B1BD10823FB737B689B79F9
:10066000022B0AD17B681B68DA687B689B88194675
:100670007B681B680A43DA600CE07B681B68DA68F9
:100680007B689B8819467B681B680A43DA6001E037
:100690000423FB73FC7B7B689B881846FFF7B8FE3E
:1006A000034604FA03F3DA43BB681B681A40BB68CD
:1006B0001A60FC7B7B689B881846FFF7A9FE0346FF
:1006C00004FA03F2BB681B681A43BB681A6000BFD8
:1006D0001437BD4690BD00BF0008014080000020D7
:1006E00000100240000C01400010014000140140C5
:1006F0000018014080B500AF4FF080431B6903F044
:100700000103002B12D04FF080431B684FF0804252
:1007100023F0010313604FF080431B694FF08042C8
:1007200023F0010313610B4B1B6898474FF0804384
:100730001B6903F04003002B0AD04FF080431B6974
:100740004FF0804223F040031361024B1B6898472F
:1007500000BF80BD8800002080B500AF124B1B6930
:1007600003F00103002B0ED00F4B1B680E4A23F041
:10077000010313600C4B1B690B4A23F00103136147
:100780000A4B5B689847084B1B6903F04003002B3A
:1007900008D0054B1B69044A23F040031361034B47
:1007A0005B68984700BF80BD0004004088000020BF
:1007B00080B500AF124B1B6903F00103002B0ED074
:1007C0000F4B1B680E4A23F0010313600C4B1B698F
:1007D0000B4A23F0010313610A4B9B689847084BAF
:1007E0001B6903F04003002B08D0054B1B69044A2A
:1007F00023F040031361034B9B68984700BF80BD03
:10080000000800408800002080B586B000AF786006
:100810007B681B68154A934208D1154B3B618023C6
:10082000BB82134BBB604023BB8109E0104B3B6193
:100830004FF40063BB820E4BBB604FF48063BB81FF
:100840000723BB750123FB750723BB730123FB73D0
:1008500007F108031846FFF73FFE07F1100318469B
:10086000FFF73AFE00BF1837BD4680BD0054004078
:10087000000C014080B588B000AF786007F10C0330
:1008800000221A605A609A600023FB6100F0C8FBE6
:10089000F861FB697B4AA2FB03239B0CFB61FB69AC
:1008A0009BB2FB617B681B68774A934206D1774B0A
:1008B000DB69764A43F40013D3610AE07B681B6866
:1008C000734A934205D1714BDB69704A43F480034C
:1008D000D3617B689B88002B40F0CF80FA89FB694D
:1008E0009BB213439BB2FB81BA8A7B68DB881343BC
:1008F0009BB2BB82FB69674A02FB03F27B689B6881
:100900005B00B2FBF3F3BB61BA8ABB699BB21343D2
:100910009BB2BB82FA8AFB699BB201339BB2134341
:100920009BB2FB82BA897B68598A7B689B8A0B439E
:1009300099B27B689B880B439BB213439BB2BB81EC
:100940003A8A7B689B8913439BB23B827A8A7B6895
:10095000DB8913439BB27B823B8A1AB27B681B7C88
:100960005B001BB213431BB29BB23B827B68DB89EB
:10097000012B09D17B8A1AB27B685B7C5B001BB2BE
:1009800013431BB29BB27B827B68DB8A002B50D067
:10099000FA897B68DB8A13439BB2FB817B681B6807
:1009A000394A934220D17B68DB8A03F40073002B21
:1009B00005D0394B1B68384A43F0004313607B680D
:1009C000DB8A03F48073002B05D0344B1B68334A59
:1009D00043F0010313607B689B69314A13607B68B5
:1009E000DB692F4A536024E07B681B68284A9342E6
:1009F0001FD17B68DB8A03F40073002B05D0274BE3
:100A00001B68264A43F0020313607B68DB8A03F409
:100A10008073002B05D0214B1B68204A43F0010353
:100A200013607B689B691E4A93607B68DB691C4A84
:100A3000D360FA897B681B685A603A8A7B681B68B6
:100A40009A607A8A7B681B68DA60BA8A7B681B685E
:100A5000DA61FA8A7B681B681A62BA897B681B684C
:100A60001A607868FFF7D0FE7B681B681A687B689D
:100A70001B6842F001021A6000BF00BF2037BD466C
:100A800080BD00BF83DE1B430054004000100240C5
:100A90000058004040420F0000E100E004E100E0A7
:100AA0009400002080B485B000AF78600B46FB70E6
:100AB0000023FB73FB780F2B0FD87B681B685B69E7
:100AC000FA78012101FA02F21A40FB7822FA03F3C4
:100AD000002B13D00123FB7310E07B681B689B691C
:100AE000FA78103A012101FA02F21A40FB78103B21
:100AF00022FA03F3002B01D00123FB73FB7B184682
:100B00001437BD4680BC704780B582B000AF7860B6
:100B10000B46FB701346BB70BB78012B07D000BFA0
:100B200011217868FFF7BEFF0346002BF8D1FB7850
:100B3000012B08D17B681B681A687B681B6842F42C
:100B400080721A6007E07B681B681A687B681B6804
:100B500022F480721A6000BF0837BD4680BD80B4A1
:100B600083B000AF78600B46FB70FB78012B08D197
:100B70007B681B681A687B681B6842F400721A6005
:100B800007E07B681B681A687B681B6822F40072A8
:100B90001A6000BF0C37BD4680BC704780B483B07C
:100BA00000AF78600B467B8013467B707B885B00D0
:100BB0007B807B789AB27B8813437B807B681B6841
:100BC0007A881A6100BF0C37BD4680BC704780B57B
:100BD00086B000AFF8607A603B600B467B810023F3
:100BE0003B6197F820301A460121F868FFF78CFF27
:100BF00000BF0021F868FFF755FF0346002BF8D02F
:100C0000FB681B685B693B617B8900221946F868B9
:100C1000FFF7C4FF00BF0121F868FFF743FF034659
:100C2000002BF8D0FB681B685B693B61FB681B68A5
:100C30009B693B6100BF1021F868FFF733FF034653
:100C4000002BF8D000BF1121F868FFF72BFF0346F7
:100C5000002BF8D000BF1221F868FFF723FF0346EE
:100C6000002BF8D000BF0721F868FFF71BFF0346F1
:100C7000002BF8D000237B6111E07B697A68134474
:100C80001A78FB681B681A6100BF0721F868FFF734
:100C900009FF0346002BF8D07B6901337B617B6938
:100CA0003A689A42E9D800BF0721F868FFF7FAFED0
:100CB0000346002BF8D000BF0221F868FFF7F2FED0
:100CC0000346002BF8D097F82430012B03D10121E3
:100CD000F868FFF744FF00BF1837BD4680BD80B5F8
:100CE00086B000AFF8607A603B600B467B810023E2
:100CF0003B61FB681B681A68FB681B6842F48062F2
:100D00001A6097F820301A460121F868FFF7FCFEB8
:100D100000BF0021F868FFF7C5FE0346002BF8D09E
:100D2000FB681B685B693B617B8901221946F86897
:100D3000FFF734FF00BF0121F868FFF7B3FE034659
:100D4000002BF8D03B68012B37D9FB681B685B6927
:100D50003B61FB681B689B693B6100237B6127E06B
:100D600000BF0621F868FFF79DFE0346002BF8D070
:100D70003B689A1E7B699A420FD1FB681B681A6810
:100D8000FB681B6822F480621A6097F82430012BFC
:100D900003D10121F868FFF7E2FEFB681B681969BF
:100DA0007B697A681344CAB21A707B6901337B612C
:100DB0007B693A689A42D3D828E03B68012B25D159
:100DC000FB681B681A68FB681B6822F480621A6063
:100DD000FB681B685B693B61FB681B689B693B6147
:100DE00000BF0621F868FFF75DFE0346002BF8D030
:100DF00097F82430012B03D10121F868FFF7AFFEEB
:100E0000FB681B681B69DAB27B681A7000BF183771
:100E1000BD4680BD80B582B000AF00237B602C4B07
:100E20005B6903F00103002B05D02A4B5B697B60F3
:100E3000294B00221A70274B5B6903F00203002B39
:100E400008D0244B5B697B60224B9B697B60224B03
:100E500001221A701F4B5B6903F00403002B02D0C0
:100E60001D4B02221A701B4B5B6903F00803002B19
:100E700002D0194B03221A70164B5B6903F0100362
:100E8000002B09D0134B5B697B60124B114A1B6826
:100E90001360114B04221A700E4B5B6903F0400380
:100EA000002B04D00B4B9B690B4B05221A70094B8E
:100EB0005B6903F08003002B02D0074B06221A70F7
:100EC000064B1B68984700BF0837BD4680BD00BF72
:100ED0000058004000540040A4000020940000206E
:100EE00080B400AF00BFBD4680BC704780B582B003
:100EF00000AF00233B60264B5B69254B5B6903F029
:100F00000203002B0DD0224B9B6903F00103002B41
:100F100007D11F4B5B693B601D4B9B693B60012305
:100F2000FB711B4B5B691A4B5B69194B5B6903F0E7
:100F30001003002B08D0164B5B693B60144B144A1E
:100F40005B6853600423FB71114B5B6903F0400342
:100F5000002B07D00E4B9B6903F00103002B01D13E
:100F60000523FB710A4B5B6903F08003002B07D05C
:100F7000074B9B6903F00103002B01D10623FB7192
:100F8000044B9B68984700BF0837BD4680BD00BF33
:100F9000005800409400002080B400AF00BFBD4660
:100FA00080BC704780B400AF0D4B5B689B0803F0BA
:100FB0000303032B10D801A252F823F0CD0F000831
:100FC000D10F0008D50F0008D90F0008054B03E02A
:100FD000054B01E0044BFFE71846BD4680BC704757
:100FE0000010024000127A000024F40080B582B0A4
:100FF00000AFFFF7D7FF0146074B5B681B0903F003
:101000000F03064AD35C21FA03F37B607B68184622
:101010000837BD4680BD00BF00100240981100088F
:1010200080B582B000AFFFF7E1FF0146074B5B6878
:101030001B0A03F00703064AD35C21FA03F37B6023
:101040007B6818460837BD4680BD00BF00100240CF
:101050009011000880B500AF024B1B68984700BF95
:1010600080BD00BFA800002080B500AF024B5B68C8
:10107000984700BF80BD00BFA800002080B500AF2A
:10108000024B1B68984700BF80BD00BFB80000201E
:1010900080B500AF024B5B68984700BF80BD00BFC2
:1010A000B800002080B500AF024B9B68984700BF96
:1010B00080BD00BFB800002080B500AF0548FFF735
:1010C0000BFAFFF755F8052203495020FFF772F895
:1010D000F9E700BF00000020C40000200D4885464D
:1010E000AFF300800C480D490D4A002302E0D458AC
:1010F000C4500433C4188C42F9D30A4A0A4C002362
:1011000001E013600432A242FBD300F011F8FFF7B4
:10111000D3FFFEE700500020000000200800002060
:10112000B011000808000020CC000020FEE70000FD
:1011300070B500250C4E0D4CA41BA410A54209D17E
:1011400000F01AF800250A4E0A4CA41BA410A54270
:1011500005D170BD56F8253098470135EEE756F8B1
:10116000253098470135F2E7A8110008A8110008BA
:10117000A8110008AC110008F8B500BFF8BC08BC05
:101180009E467047F8B500BFF8BC08BC9E46704745
:101190000000000001020304000000000000000045
:0811A00001020304060708091F
:0411A80055010008E5
:0411AC003101000805
:0811B0000010014000200401C1
:04000005080010DD02
:00000001FF
