:020000040800F2
:100000000028002029160008791600087916000833
:10001000791600087916000879160008000000001B
:100020000000000000000000000000007916000839
:1000300079160008000000007916000879160008FB
:100040007916000879160008791600087916000854
:10005000791600087916000871010008950100085A
:10006000B9010008DD010008010200087916000846
:100070007916000879160008791600087916000824
:100080007916000879160008791600087916000814
:10009000791600087916000879160008250200086C
:1000A00079160008791600087916000879160008F4
:1000B00079060008DD060008350700088D070008EE
:1000C0008508000879090008750A00089D100008D5
:1000D000B1100008F91400080D15000821150008DA
:1000E000CD0200087916000800000000791600080B
:1000F00079160008791600087916000879160008A4
:100100007916000879160008791600087916000893
:100110007916000879160008791600087916000883
:100120007916000879160008791600087916000873
:1001300010B5054C237833B9044B13B10448AFF321
:1001400000800123237010BD080000200000000083
:10015000C416000808B5034B1BB103490348AFF3AD
:10016000008008BD000000000C000020C41600083C
:1001700080B500AF054B5B69044A43F0010353614E
:10018000034B1B68984700BF80BD00BF00040140BF
:100190002400002080B500AF054B5B69044A43F0A2
:1001A00002035361034B5B68984700BF80BD00BFEB
:1001B000000401402400002080B500AF054B5B69BE
:1001C000044A43F004035361034B9B68984700BF04
:1001D00080BD00BF000401402400002080B500AFB6
:1001E000054B5B69044A43F008035361034BDB682A
:1001F000984700BF80BD00BF0004014024000020DC
:1002000080B500AF054B5B69044A43F010035361AE
:10021000034B1B69984700BF80BD00BF000401402D
:100220002400002080B500AF264B5B6903F020035B
:10023000002B08D0234B5B69224A43F02003536113
:10024000214B5B6998471F4B5B6903F04003002B10
:1002500008D01C4B5B691B4A43F0400353611A4BA7
:100260009B699847174B5B6903F08003002B08D00C
:10027000144B5B69134A43F080035361124BDB69F3
:100280009847104B5B6903F48073002B08D00D4B2B
:100290005B690C4A43F4807353610B4B1B6A9847AC
:1002A000084B5B6903F40073002B08D0054B5B69B6
:1002B000044A43F400735361034B5B6A984700BFE1
:1002C00080BD00BF000401402400002080B500AFC5
:1002D000264B5B6903F48063002B08D0234B5B69DA
:1002E000224A43F480635361214B9B6A98471F4B1A
:1002F0005B6903F40063002B08D01C4B5B691B4A4D
:1003000043F4006353611A4BDB6A9847174B5B69F0
:1003100003F48053002B08D0144B5B69134A43F459
:1003200080535361124B1B6B9847104B5B6903F46E
:100330000053002B08D00D4B5B690C4A43F400536B
:1003400053610B4B5B6B9847084B5B6903F480432D
:10035000002B08D0054B5B69044A43F4804353618A
:10036000034B9B6B984700BF80BD00BF000401405A
:100370002400002080B483B000AF0346FB80FB88DC
:10038000802B42D0802B11DC082B36D0082B06DCCA
:10039000022B2ED0042B2ED0012B28D047E0202B6F
:1003A0002FD0402B2FD0102B29D040E0B3F5006F79
:1003B00033D0B3F5006F09DCB3F5007F29D0B3F576
:1003C000806F28D0B3F5807F21D030E0B3F5005F97
:1003D00027D0B3F5005F03DCB3F5805F1FD026E0C4
:1003E000B3F5804F1FD0B3F5004F1ED01FE00023A0
:1003F0001EE004231CE008231AE00C2318E010235D
:1004000016E0142314E0182312E01C2310E000234C
:100410000EE004230CE008230AE00C2308E010237C
:1004200006E0142304E0182302E01C2300E000236C
:1004300018460C37BD4680BC7047000090B585B0AB
:1004400000AF78607B681B687A4A93420DD17A4B83
:100450001B78012B09D0794B9B69784A43F0040340
:100460009361754B01221A704AE07B681B68744ADD
:1004700093420DD1704B5B78012B09D06F4B9B6978
:100480006E4A43F0080393616B4B01225A7037E0C8
:100490007B681B686B4A93420DD1674B9B78012B9D
:1004A00009D0664B9B69654A43F010039361624B28
:1004B00001229A7024E07B681B68634A93420DD145
:1004C0005D4BDB78012B09D05C4B9B695B4A43F0A9
:1004D00020039361584B0122DA7011E07B681B689E
:1004E0005A4A93420CD1544B1B79012B08D0534BE1
:1004F0009B69524A43F0400393614F4B01221A71AA
:100500007B689B79052B08D94C4B9B694B4A43F080
:1005100001039361484B01225A710023BB607B6841
:100520009B88FF2B02D87B681B6802E07B681B68F6
:100530000433BB600023FB737B689B79032B12D9C8
:100540007B689B79072B0ED87B689B79043B9B00CB
:100550005AB27B68DB795BB213435BB2DBB203F068
:100560000F03FB7336E07B689B79002B03D07B681D
:100570009B79012B07D17B689B799B00DBB203F051
:100580000F03FB7326E07B689B79022B03D07B680B
:100590009B79032B1CD10823FB737B689B79022B6F
:1005A0000AD17B681B68DA687B689B8819467B6880
:1005B0001B680A43DA600DE07B681B68DA687B68B9
:1005C0009B88DB4319467B681B680A40DA6001E0C0
:1005D0000423FB737B689B881846FFF7CBFE03461A
:1005E0001A460F239340DA43BB681B681A40BB6866
:1005F0001A60FC7B7B689B881846FFF7BBFE0346AE
:1006000004FA03F3DA43BB681B681A40BB681A603C
:10061000FC7B7B689B881846FFF7ACFE034604FA18
:1006200003F2BB681B681A43BB681A6000BF14372B
:10063000BD4690BD0008014060000020001002404F
:10064000000C01400010014000140140001801405E
:1006500080B483B000AF78607B681B68DA687B6821
:100660009B8819467B681B684A40DA6000BF0C37DC
:10067000BD4680BC7047000080B500AF4FF080439E
:100680001B6903F00103002B12D04FF080431B685D
:100690004FF0804223F0010313604FF080431B6949
:1006A0004FF0804223F0010313610B4B1B68984706
:1006B0004FF080431B6903F04003002B0AD04FF03A
:1006C00080431B694FF0804223F040031361024BCB
:1006D0001B68984700BF80BD6800002080B500AF50
:1006E000124B1B6903F00103002B0ED00F4B1B684C
:1006F0000E4A23F0010313600C4B1B690B4A23F0D5
:10070000010313610A4B5B689847084B1B6903F0B0
:100710004003002B08D0054B1B69044A23F040031B
:100720001361034B5B68984700BF80BD0004004025
:100730006800002080B500AF124B1B6903F0010375
:10074000002B0ED00F4B1B680E4A23F001031360E1
:100750000C4B1B690B4A23F0010313610A4B9B6886
:100760009847084B1B6903F04003002B08D0054B4A
:100770001B69044A23F040031361034B9B689847AD
:1007800000BF80BD000800406800002080B584B034
:1007900000AF00233B60394B5B6803F40073FB60E0
:1007A000364B5B6803F48063BB60344B5B6903F0DA
:1007B00004037B60FB68002B0AD07B68002B07D00A
:1007C0002E4B2E4A1B6813602D4B1B680420984744
:1007D0002A4B5B6903F001037B60FB68002B0CD0A4
:1007E0007B68002B09D0254B9B6903F48033002BD9
:1007F00003D1234B1B6801209847204B5B6903F012
:1008000007037B60FB68002B15D0BB68002B12D060
:100810007B68002B0FD0194B9B6903F48033002BAE
:1008200009D1164B9B6903F48023002B03D0144B92
:100830001B6806209847114B5B6903F006037B6039
:10084000FB68002B15D0BB68002B12D07B68002BF7
:100850000FD00A4B9B6903F48033002B09D1074B5F
:100860009B6903F48023002B03D0054B1B680520F4
:1008700098473B6800BF1037BD4680BD005400401C
:100880007400002080B582B000AF394B5B6803F480
:1008900080737B60364B5B6903F001033B603B6810
:1008A000002B0CD07B68002B09D0314B5B69304AA0
:1008B00023F4807353612F4B1B68002098472C4B07
:1008C0005B6903F002033B603B68002B0CD07B6844
:1008D000002B09D0264B5B69254A23F40073536132
:1008E000244B1B6801209847214B5B6903F00403EC
:1008F0003B603B68002B0CD07B68002B09D01C4B65
:100900005B691B4A23F4806353611A4B1B68022006
:100910009847174B5B6903F008033B603B68002B6B
:100920000CD07B68002B09D0114B5B69104A23F473
:10093000006353610F4B1B68032098470C4B5B69A6
:1009400003F020033B603B68002B0CD07B68002B3E
:1009500009D0074B5B69064A23F480435361054B7A
:100960001B680520984700BF0837BD4680BD00BF03
:10097000005400407C00002080B584B000AF00230C
:100980003B60394B5B6803F40073FB60364B5B687C
:1009900003F48063BB60344B5B6903F004037B604A
:1009A000FB68002B0AD07B68002B07D02E4B2E4A09
:1009B0001B6813602D4B1B68042098472A4B5B690A
:1009C00003F001037B60FB68002B0CD07B68002BDD
:1009D00009D0254B9B6903F48033002B03D1234BB3
:1009E0001B6801209847204B5B6903F007037B607D
:1009F000FB68002B15D0BB68002B12D07B68002B46
:100A00000FD0194B9B6903F48033002B09D1164B8F
:100A10009B6903F48023002B03D0144B1B68062032
:100A20009847114B5B6903F006037B60FB68002B62
:100A300015D0BB68002B12D07B68002B0FD00C4B5D
:100A40009B6903F48033002B09D1074B9B6903F4A6
:100A50008023002B03D0054B1B68052098473B687B
:100A600000BF1037BD4680BD005800407800002010
:100A70000054004080B582B000AF394B5B6803F48E
:100A800080737B60364B5B6903F001033B603B681E
:100A9000002B0CD07B68002B09D0314B5B69304AAE
:100AA00023F4807353612F4B1B68002098472C4B15
:100AB0005B6903F002033B603B68002B0CD07B6852
:100AC000002B09D0264B5B69254A23F40073536140
:100AD000244B1B6801209847214B5B6903F00403FA
:100AE0003B603B68002B0CD07B68002B09D01E4B71
:100AF0009B691D4A23F4806393611A4B1B68022093
:100B00009847174B5B6903F008033B603B68002B79
:100B10000CD07B68002B09D0114B5B69104A23F481
:100B2000006353610F4B1B68032098470C4B5B69B4
:100B300003F020033B603B68002B0CD07B68002B4C
:100B400009D0074B5B69064A23F480435361054B88
:100B50001B680520984700BF0837BD4680BD00BF11
:100B600000580040800000200054004080B400AFD6
:100B70000D4B5B689B0803F00303032B10D801A205
:100B800052F823F0950B0008990B00089D0B000804
:100B9000A10B0008054B03E0054B01E0044BFFE708
:100BA0001846BD4680BC70470010024000127A0013
:100BB0000024F40080B582B000AFFFF7D7FF0146F4
:100BC000074B5B681B0903F00F03064AD35C21FA4D
:100BD00003F37B607B6818460837BD4680BD00BFC5
:100BE000001002404417000880B582B000AFFFF744
:100BF000E1FF0146074B5B681B0A03F00703064A47
:100C0000D35C21FA03F37B607B6818460837BD4646
:100C100080BD00BF001002403C17000880B500AF47
:100C2000FFF7C8FF0146054B5B68DB0A03F00703CB
:100C3000034AD35C21FA03F3184680BD001002403A
:100C40003C17000880B485B000AF78600023FB81BA
:100C50000023BB817B681B68424A934206D1424B0A
:100C60009B69414A43F48053936105E03E4BDB6945
:100C70003D4A43F48043D3617B689A88FB891343E0
:100C8000FB817B68DB881BB223F4F74323F07F03EF
:100C90001AB2B7F90E3013431BB2FB817B689B88F5
:100CA000042B04D17B685A8AFB891343FB817B6840
:100CB0005A89FB891343FB817B68DA897B689B89AE
:100CC00013439AB2FB891343FB817B681A89FB8922
:100CD0001343FB817B681B8A002B03D07B681B8A34
:100CE000042B05D17B681A8ABB891343BB8104E0BE
:100CF0007B681A8AFB891343FB817B689B8A002BE4
:100D00001ED07B689A8ABB891343BB817B681B68B2
:100D1000144A93420AD17B689B69144A1360144BAE
:100D20001B68134A43F00803136009E07B689B6962
:100D30000E4A53600E4B1B680D4A43F010031360BC
:100D4000FB8943F04003FB817B681B68FA891A60CA
:100D50007B681B68BA895A6000BF1437BD4680BCE7
:100D6000704700BF00300140001002409400002096
:100D700004E100E080B58AB000AF78600B46FB70FC
:100D8000002387F827307B681B68734A93421CD185
:100D9000002387F8273097F82730704A704942F8C7
:100DA000331097F827306D4ADB00134410229A80E5
:100DB0006B4BFB6020233B82694B7B6140233B8371
:100DC000674BFB6180233B841EE0012387F82730BB
:100DD00097F82730614A624942F8331097F8273074
:100DE0005E4ADB00134410229A805E4BFB604FF496
:100DF00000533B825B4B7B614FF480433B83594BF9
:100E0000FB614FF400433B847B689B88042B04D137
:100E10000623BB740123FB7407E07B689B88002BCF
:100E200003D10123BB740023FB7407F10C031846A4
:100E3000FFF704FB7B689B88042B10D17B68DB8861
:100E4000B3F5806F1BD0062387F82230012387F883
:100E5000233007F11C031846FFF7F0FA0FE07B6818
:100E6000DB88B3F5004F0AD0012387F82230002336
:100E700087F8233007F11C031846FFF7DFFA7B6879
:100E80009B88042B0ED17B68DB88B3F5004F27D0FD
:100E90000123BB760023FB7607F114031846FFF706
:100EA000CDFA1DE07B68DB88B3F5806F18D0FB7846
:100EB000002B09D10623BB760123FB7607F114032F
:100EC0001846FFF7BBFA0BE0FB78012B3ED1072356
:100ED000BB760123FB7607F114031846FFF7AEFA41
:100EE0007B681B8A002B16D197F827301B4ADB0042
:100EF000134401229A7197F82730184ADB001344F3
:100F00000022DA7197F82730DB00144A13441846A0
:100F1000FFF794FA1DE07B681B8A042B18D197F821
:100F200027300E4ADB00134406229A7197F82730C7
:100F30000A4ADB0013440122DA7197F82730DB00FC
:100F4000064A13441846FFF779FA02E000BF00E0B2
:100F500000BF2837BD4680BD00300140840000201E
:100F600000080140000C014080B485B000AFF8607B
:100F7000B9601346FB71FB79012B07D100BFFB68F9
:100F80001B689B6803F00203002BF8D0FB68DB882A
:100F9000B3F5004F1FD100BFFB681B689B6803F0CF
:100FA0008003002BF8D1FB681B681A68FB681B687C
:100FB00022F040021A60FB681B681A68FB681B6815
:100FC00042F480421A60FB681B681A68FB681B6861
:100FD00042F040021A60BB681A88FB681B68DA603E
:100FE00000BF1437BD4680BC704780B485B000AFE9
:100FF000F860B9601346FB71FB79012B07D100BF84
:10100000FB681B689B6803F00103002BF8D0FB68AA
:10101000DB88B3F5004F1FD100BFFB681B689B68DE
:1010200003F08003002BF8D1FB681B681A68FB688B
:101030001B6822F040021A60FB681B681A68FB6894
:101040001B6822F480421A60FB681B681A68FB6800
:101050001B6842F040021A60FB681B68DB689AB2AA
:10106000BB681A8000BF1437BD4680BC704780B58E
:1010700084B000AFF860B9601346FB71FB791A4683
:10108000B968F868FFF770FFFB791A46B968F86825
:10109000FFF7ABFF00BF1037BD4680BD80B500AF86
:1010A000024B1B68984700BF80BD00BF9400002022
:1010B00080B500AF024B5B68984700BF80BD00BFA2
:1010C0009400002080B588B000AF78607B681B6812
:1010D000684A934209D1684B9B69674A43F480434D
:1010E0009361FFF79BFDF8611DE07B681B68634A15
:1010F000934209D1604BDB695F4A43F40033D3610B
:10110000FFF772FDF8610EE07B681B685B4A934253
:1011100040F0AB80584BDB69574A43F48023D361DE
:10112000FFF762FDF8617B681B68DA687B681B6803
:1011300042F40052DA607B681B68D9687B68DA6821
:101140007B681B680A43DA607B681B6819697B68E7
:101150005A697B681B680A431A617B689B681B019C
:10116000FA69B2FBF3F39BB2BB61BB69642202FB79
:1011700003F37B61FA6913469B0013449A001A44F7
:101180007B689B689B00B2FBF3F27B69D31A3B61DF
:101190003B691B013A4AA2FB03235B09FB60BB6965
:1011A000C3F30B03BB61FB6803F00F03FB607B68B9
:1011B0001B689968BB691A01FB681A437B681B6846
:1011C0000A439A607B681B68D9687B681A697B68E8
:1011D0001B680A43DA607B681B6859697B689A69F7
:1011E0007B681B680A435A617B681B68D9687B6807
:1011F0005A687B681B680A43DA607B68DB69002BEE
:1012000034D07B681B68D9687B68DA697B681B68A7
:101210000A43DA607B681B68164A93420AD17B68EE
:101220001B6A184A1360184B1B68174A43F02003C7
:1012300013601BE07B681B68104A93420AD17B68ED
:101240001B6A104A5360104B1B680F4A43F040035F
:1012500013600BE07B681B6A0A4A93600A4B1B68A9
:10126000094A43F08003136000E000BF2037BD4609
:1012700080BD00BF00380140001002400044004023
:101280001F85EB519C00002004E100E080B59AB07E
:1012900000AF78607B681B68734A934249D17B68D2
:1012A0005B6803F00803002B0BD0704A07F1600362
:1012B00092E8030083E8030007F160031846FFF794
:1012C000BDF87B685B6803F00403002B0BD0684A11
:1012D00007F1580392E8030083E8030007F158037D
:1012E0001846FFF7ABF87B685B6803F40073002BCC
:1012F0000BD0604A07F1500392E8030083E8030033
:1013000007F150031846FFF799F87B685B6803F410
:101310008073002B00F0A380574A07F1480392E83E
:10132000030083E8030007F148031846FFF786F837
:1013300095E07B681B68514A934248D17B685B68A3
:1013400003F00803002B0BD04D4A07F1400392E84D
:10135000030083E8030007F140031846FFF76EF827
:101360007B685B6803F00403002B0BD0454A07F150
:10137000380392E8030083E8030007F138031846B6
:10138000FFF75CF87B685B6803F40073002B0BD0FD
:101390003D4A07F1300392E8030083E8030007F1B8
:1013A00030031846FFF74AF87B685B6803F48073E4
:1013B000002B54D0354A07F1280392E8030083E854
:1013C000030007F128031846FFF738F847E07B6869
:1013D0005B6803F00803002B0BD02D4A07F12003B4
:1013E00092E8030083E8030007F120031846FFF7A3
:1013F00025F87B685B6803F00403002B0BD0254ABB
:1014000007F1180392E8030083E8030007F11803CB
:101410001846FFF713F87B685B6803F40073002B32
:101420000BD01D4A07F1100392E8030083E8030084
:1014300007F110031846FFF701F87B685B6803F4B7
:101440008073002B0BD0154A07F1080392E80300C4
:1014500083E8030007F108031846FEF7EFFF00BF1B
:101460006837BD4680BD00BF00380140DC1600086B
:10147000E4160008EC160008F416000800440040CA
:10148000FC160008041700080C17000814170008C1
:101490001C170008241700082C1700083417000830
:1014A00080B485B000AFF860B9601346FB71FB797A
:1014B000012B07D100BFFB681B681B6803F080038A
:1014C000002BF8D0FB68DB68B3F5805F08D1BB6800
:1014D0001B881A46FB681B68C2F308025A6006E0C4
:1014E000BB681B881A46FB681B68D2B25A6000BFF3
:1014F0001437BD4680BC704780B500AF024B1B68F7
:10150000984700BF80BD00BF9C00002080B500AFA1
:10151000024B5B68984700BF80BD00BF9C00002065
:1015200080B500AF024B9B68984700BF80BD00BFED
:101530009C00002080B500AF002209490948FFF750
:1015400096FD074B1B886D2B02D10748FFF780F8EB
:10155000012203490548FFF7A3FF00BF80BD00BF7C
:10156000A8000020D800002000000020B4000020C7
:1015700080B500AF264B274A1A60254B4FF4E13265
:101580009A60234B0022DA60214B00221A61204B23
:1015900000225A611E4B00229A611D4B08225A609C
:1015A0001B4B0022DA611A4B00221A621848FFF71F
:1015B00089FD1748FFF76AFE174B184A1A60164B49
:1015C0000122DA81144B02229A81134B00225A81A4
:1015D000114B00221A81104B10225A820E4B00220E
:1015E000DA800D4B00229A800B4B00221A820A4BA4
:1015F00040229A82084B0A4A9A610A48FEF71EFF67
:101600000548FFF71FFB00210348FFF7B3FBFEE788
:10161000B400002000380140D80000200030014014
:1016200035150008000000200D488546AFF3008006
:101630000C480D490D4A002302E0D458C45004332D
:10164000C4188C42F9D30A4A0A4C002301E0136003
:101650000432A242FBD300F011F8FFF789FFFEE746
:101660000028002000000020080000205C1700086F
:1016700008000020F4000020FEE7000070B50025FF
:101680000C4E0D4CA41BA410A54209D100F01AF871
:1016900000250A4E0A4CA41BA410A54205D170BD1A
:1016A00056F8253098470135EEE756F8253098472B
:1016B0000135F2E7541700085417000854170008C2
:1016C00058170008F8B500BFF8BC08BC9E46704724
:0C16D000F8B500BFF8BC08BC9E4670478F
:1016DC000008014000020601000801400004080057
:1016EC000008014000080601000801400010080035
:1016FC000008014004000601000801400800080031
:10170C000008014001000601000801400200080029
:10171C00000C014000040601000C01400008080008
:10172C00000C014000200601000C014000400800A4
:10173C000000000001020304000000000000000093
:08174C0001020304060708096D
:041754005501000833
:041758003101000853
:08175C00000C01400100040132
:0400000508001629B0
:00000001FF
