S0180000447269766572735F41546D65676133322E737265633A
S11300000C942A000C9447000C9447000C9447006D
S11300100C9447000C9447000C9447000C94470040
S11300200C9447000C9447000C9447000C94470030
S11300300C9447000C9447000C9447000C94470020
S11300400C9447000C9447000C9447000C94470010
S11300500C94470011241FBECFE5D8E0DEBFCDBF0E
S113006010E0A0E6B0E0E6E5F5E002C005900D92F0
S1130070AA37B107D9F720E0AAE7B0E001C01D9282
S1130080A038B207E1F70E9460020C94A9020C9414
S1130090000041E060E183E390E00E949D0241E0C2
S11300A060E283E390E00E949D0241E060E483E328
S11300B090E00E949D0241E060E883E390E00E94AA
S11300C09D0208951F93CF93DF93CAE7D0E081E0A8
S11300D089838883BE0183E390E00E94720212E068
S11300E01883BE0183E390E00E94720284E0888357
S11300F0BE0183E390E00E94720288E08883BE011F
S113010083E390E00E947202198380E18883BE0138
S113011083E390E00E94720280E28883BE0183E35D
S113012090E00E94720280E48883BE0183E390E041
S11301300E94720280E88883BE0183E390E00E94FB
S113014072020E944900DF91CF911F910895EF92AE
S1130150FF921F93CF93DF93E12CF12C31C00E94C7
S1130160490040E0F701EF58FF4F608183E390E0DE
S11301700E949D02C0E0D0E01DC0FE01EB58FF4F7D
S11301801081612F83E390E00E949702811111C0D6
S1130190612F83E390E00E9497028823C9F3CC0F78
S11301A0DD1FCC0FDD1FCF59DF4FCE0DDF1D888142
S11301B00CC02196C430D10504F38FEFE81AF80A75
S11301C084E0E816F1045CF280E0DF91CF911F91A6
S11301D0FF90EF900895CF93DF93CDE7D0E082E0D6
S11301E089838883BE0189E390E00E94720288E0DB
S11301F08883BE0189E390E00E94720280E18883D3
S1130200BE0189E390E00E94720280E28883BE010D
S113021089E390E00E94720280E48883BE0189E34E
S113022090E00E94720280E88883BE0189E390E036
S11302300E947202DF91CF91089541E068E089E362
S113024090E00E949D0240E068E089E390E00E9413
S11302509D020895CF93C82F41E062E089E390E0C6
S11302600E949D024C2F407150E05595479555953D
S11302704795559547955595479560E189E390E0F5
S11302800E949D024C2F407250E05595479555951C
S1130290479555954795559547955595479560E2EA
S11302A089E390E00E949D024C2F407450E0042E9C
S11302B0452F000C441F550B000C441F551F60E4D0
S11302C089E390E00E949D024C2F441F4427441F61
S11302D060E889E390E00E949D020E941D014C2F7A
S11302E0417060E189E390E00E949D024C2F4270CE
S11302F050E05595479560E289E390E00E949D02A5
S11303004C2F447050E0559547955595479560E4BA
S113031089E390E00E949D02C8704C2F50E05595EF
S11303204795559547955595479560E889E390E03D
S11303300E949D020E941D01CF910895CF93C82F62
S113034040E062E089E390E00E949D024C2F4071FE
S113035050E055954795559547955595479555952D
S1130360479560E189E390E00E949D024C2F407222
S113037050E055954795559547955595479555950D
S113038047955595479560E289E390E00E949D0268
S11303904C2F407450E0042E452F000C441F550B85
S11303A0000C441F551F60E489E390E00E949D0205
S11303B04C2F441F4427441F60E889E390E00E94C7
S11303C09D020E941D014C2F417060E189E390E081
S11303D00E949D024C2F427050E05595479560E273
S11303E089E390E00E949D024C2F447050E05595A3
S11303F047955595479560E489E390E00E949D02F6
S1130400C8704C2F50E0559547955595479555958F
S1130410479560E889E390E00E949D020E941D01D7
S1130420CF9108950E94EB0082E00E949E0188E231
S11304300E949E018CE00E949E01089581E00E942A
S11304409E0110927C0081E0809360000895CF9318
S1130450DF93C82FD62F813031F4603120F480E847
S1130460860F0E949E01C23031F4D03120F480EC1A
S11304708D0F0E949E01DF91CF910895CF93C82FD5
S113048080917C00803190F010927C00809160001B
S1130490823031F481E0809360000E941E020EC01D
S11304A08F5F8093600060E00E9427028C2F0E947F
S11304B02A0180917C008F5F80937C00CF91089506
S11304C00E9412020E9462000E94A70080937F0093
S11304D08823D1F38F3319F40E941E02F5CF0E94B2
S11304E03E02F2CFFC01DB0111968C911197813011
S11304F079F018F08230B1F0089591818C91809553
S11305008923818392818C918095892382830895A4
S113051091818C9180958923818392818C91892BFF
S11305208283089591818C91892B81830895FC01A4
S11305308081862309F081E00895FC01413021F493
S11305408281682B62830895928160956923628316
S10905500895F894FFCFAA
S1130556013738392F3435362A3132332D3F303D81
S10D05662B1020408001020408005D
S9030000FC
