:020000040800F2
:10000000002800205D120008AD120008AD120008A3
:10001000AD120008AD120008AD120008000000008B
:10002000000000000000000000000000AD12000809
:10003000AD12000800000000AD120008AD1200086B
:10004000AD120008AD120008AD120008AD12000894
:10005000AD120008AD120008D9040008FD04000824
:10006000210500084505000869050008AD120008D3
:10007000AD120008AD120008AD120008AD12000864
:10008000AD120008AD120008AD120008AD12000854
:10009000AD120008AD120008AD1200088D05000871
:1000A000AD120008AD120008AD120008AD12000834
:1000B000AD120008AD120008AD120008AD12000824
:1000C000AD120008AD120008AD120008AD0A00081C
:1000D000C10A00088D0F0008A10F0008B50F000825
:1000E00035060008AD12000800000000AD1200083F
:1000F000AD120008AD120008AD120008AD120008E4
:10010000AD120008AD120008AD120008AD120008D3
:10011000AD120008AD120008AD120008AD120008C3
:10012000AD120008AD120008AD120008AD120008B3
:1001300010B5054C237833B9044B13B10448AFF321
:1001400000800123237010BD340000200000000057
:10015000F812000808B5034B1BB103490348AFF37D
:10016000008008BD0000000038000020F8120008E0
:1001700080B483B000AF0346FB71FB790F2B54D8DA
:1001800001A252F823F000BFC9010008D7010008FE
:10019000E5010008F3010008010200080F02000851
:1001A0000F0200080F0200080F0200080F020008EB
:1001B0001D0200081D0200081D0200081D020008A3
:1001C0001D0200081D0200081A4B1B68194A43F063
:1001D0004003136029E0174B1B68164A43F0800365
:1001E000136022E0134B1B68124A43F480731360C0
:1001F0001BE0104B1B680F4A43F40073136014E0BC
:100200000C4B1B680B4A43F4806313600DE0094BF1
:100210001B68084A43F40003136006E0064B1B68A2
:10022000054A43F48073136000BF00BF0C37BD461E
:1002300080BC704700E100E004E100E080B483B0DE
:1002400000AF0346FB71FB790F2B54D801A252F883
:1002500023F000BF95020008A3020008B1020008C5
:10026000BF020008CD020008DB020008DB02000824
:10027000DB020008DB020008DB020008E9020008DC
:10028000E9020008E9020008E9020008E9020008A2
:10029000E90200081A4B1B68194A43F04003136037
:1002A00029E0174B1B68164A43F08003136022E0D5
:1002B000134B1B68124A43F4807313601BE0104B0E
:1002C0001B680F4A43F40073136014E00C4B1B6867
:1002D0000B4A43F4806313600DE0094B1B68084A26
:1002E00043F40003136006E0064B1B68054A43F421
:1002F0008073136000BF00BF0C37BD4680BC7047E1
:1003000080E100E084E100E080B584B000AF786077
:100310007B680433184600F045FA7B681B789B081D
:10032000FB737B681B789B08DBB29B00BB73624A44
:10033000FB7B023352F82320BB7B0F2101FA03F32E
:10034000DB4318465C49FB7B0240023341F8232023
:10035000594AFB7B023352F823207B685B6857497C
:100360008B421DD07B685B6855498B4216D07B68F9
:100370005B6854498B420FD07B685B6852498B4263
:1003800008D07B685B6851498B4201D1042308E0A7
:10039000002306E0032304E0022302E0012300E03F
:1003A0000023B97B8B4018464349FB7B0243023351
:1003B00041F82320464B9B687A6812781146012247
:1003C0008A40D2431146424A0B409360404BDB685F
:1003D0007A681278114601228A40D24311463C4A7B
:1003E0000B40D3607B681B7B012B0FD0022B19D0F5
:1003F000002B2ED1364B9B687A6812781146012269
:100400008A401146324A0B43936022E0304BDB684E
:100410007A681278114601228A4011462C4A0B4311
:10042000D36016E02A4B9B687A6812781146012245
:100430008A401146264A0B439360254BDB687A6855
:100440001278114601228A401146214A0B43D3609B
:1004500000BF7B681B7819467B681B691D4A42F800
:1004600021307B685B7B012B10D1194B1B687A68AC
:100470001278114601228A401146154A0B43136037
:100480007B681B781846FFF773FE10E0104B1B6863
:100490007A681278114601228A40D24311460C4AEA
:1004A0000B4013607B681B781846FFF7C7FE00BF40
:1004B0001037BD4680BD00BF00000140000801406C
:1004C000000C0140001001400014014000180140E0
:1004D000000401405000002080B500AF054B5B696F
:1004E000044A43F001035361034B1B68984700BF64
:1004F00080BD00BF000401405000002080B500AF67
:10050000054B5B69044A43F002035361034B5B688C
:10051000984700BF80BD00BF00040140500000208C
:1005200080B500AF054B5B69044A43F00403536197
:10053000034B9B68984700BF80BD00BF000401408B
:100540005000002080B500AF054B5B69044A43F0C2
:1005500008035361034BDB68984700BF80BD00BFB1
:10056000000401405000002080B500AF054B5B69DE
:10057000044A43F010035361034B1B69984700BFC3
:1005800080BD00BF000401405000002080B500AFD6
:10059000264B5B6903F02003002B08D0234B5B69DB
:1005A000224A43F020035361214B5B6998471F4B5C
:1005B0005B6903F04003002B08D01C4B5B691B4AAE
:1005C00043F0400353611A4B9B699847174B5B6993
:1005D00003F08003002B08D0144B5B69134A43F0EF
:1005E00080035361124BDB699847104B5B6903F43E
:1005F0008073002B08D00D4B5B690C4A43F4807369
:1006000053610B4B1B6A9847084B5B6903F40073FB
:10061000002B08D0054B5B69044A43F40073536117
:10062000034B5B6A984700BF80BD00BF00040140D8
:100630005000002080B500AF264B5B6903F4806357
:10064000002B08D0234B5B69224A43F4806353613B
:10065000214B9B6A98471F4B5B6903F40063002B97
:1006600008D01C4B5B691B4A43F4006353611A4B6F
:10067000DB6A9847174B5B6903F48053002B08D063
:10068000144B5B69134A43F480535361124B1B6B49
:100690009847104B5B6903F40053002B08D00D4BB7
:1006A0005B690C4A43F4005353610B4B5B6B9847F7
:1006B000084B5B6903F48043002B08D0054B5B6952
:1006C000044A43F480435361034B9B6B984700BF3C
:1006D00080BD00BF000401405000002080B483B002
:1006E00000AF0346FB80FB88802B42D0802B11DCBF
:1006F000082B36D0082B06DC022B2ED0042B2ED054
:10070000012B28D047E0202B2FD0402B2FD0102BAF
:1007100029D040E0B3F5006F33D0B3F5006F09DCAA
:10072000B3F5007F29D0B3F5806F28D0B3F5807F73
:1007300021D030E0B3F5005F27D0B3F5005F03DCD4
:10074000B3F5805F1FD026E0B3F5804F1FD0B3F51F
:10075000004F1ED01FE000231EE004231CE00823EE
:100760001AE00C2318E0102316E0142314E01823D9
:1007700012E01C2310E000230EE004230CE0082309
:100780000AE00C2308E0102306E0142304E01823F9
:1007900002E01C2300E0002318460C37BD4680BC55
:1007A0007047000090B585B000AF78607B681B682B
:1007B0007A4A93420DD17A4B1B78012B09D0794BA1
:1007C0009B69784A43F004039361754B01221A70C8
:1007D0004AE07B681B68744A93420DD1704B5B788A
:1007E000012B09D06F4B9B696E4A43F0080393615C
:1007F0006B4B01225A7037E07B681B686B4A93424F
:100800000DD1674B9B78012B09D0664B9B69654ADC
:1008100043F010039361624B01229A7024E07B68DD
:100820001B68634A93420DD15D4BDB78012B09D0E5
:100830005C4B9B695B4A43F020039361584B012258
:10084000DA7011E07B681B685A4A93420CD1544B12
:100850001B79012B08D0534B9B69524A43F040034C
:1008600093614F4B01221A717B689B79052B05D947
:100870004C4B9B694B4A43F0010393610023BB60DF
:100880007B689B88FF2B02D87B681B6802E07B6833
:100890001B680433BB600423FB737B689B8818468A
:1008A000FFF71CFF03461A460F239340DA43BB6849
:1008B0001B681A40BB681A607B689B79032B14D9AC
:1008C0007B689B79072B10D80023FB737B689B798F
:1008D000043B9B005AB27B68DB795BB213435BB28B
:1008E000DBB203F00F03FB7337E00023FB737B687D
:1008F0009B79002B03D07B689B79012B07D17B6808
:100900009B799B00DBB203F00F03FB7325E07B6850
:100910009B79022B03D07B689B79032B1BD1082387
:10092000FB737B689B79022B0AD17B681B68DA68B2
:100930007B689B8819467B681B680A43DA600CE079
:100940007B681B68DA687B689B8819467B681B6834
:100950000A43DA6001E00423FB73FC7B7B689B881D
:100960001846FFF7BBFE034604FA03F3DA43BB68FD
:100970001B681A40BB681A60FC7B7B689B88184622
:10098000FFF7ACFE034604FA03F2BB681B681A4388
:10099000BB681A6000BF1437BD4690BD0008014017
:1009A0008C00002000100240000C014000100140AB
:1009B000001401400018014080B483B000AF78609B
:1009C0000B46FB70FB78012B05D17B689A887B680E
:1009D0001B681A6104E07B689A887B681B685A610F
:1009E00000BF0C37BD4680BC7047000080B400AF2C
:1009F0000D4B5B689B0803F00303032B10D801A287
:100A000052F823F0150A0008190A00081D0A000808
:100A1000210A0008054B03E0054B01E0044BFFE70A
:100A20001846BD4680BC70470010024000127A0094
:100A30000024F40080B500AFFFF7D8FF0146054B56
:100A40005B681B0903F00F03034AD35C21FA03F32D
:100A5000184680BD001002407813000880B500AF32
:100A6000FFF7E8FF0146054B5B681B0A03F007032D
:100A7000034AD35C21FA03F3184680BD00100240FC
:100A80007013000880B500AFFFF7D4FF0146054B97
:100A90005B68DB0A03F00703034AD35C21FA03F324
:100AA000184680BD001002407013000880B500AFEA
:100AB000024B1B68984700BF80BD00BF9400002018
:100AC00080B500AF024B5B68984700BF80BD00BF98
:100AD0009400002080B588B000AF78607B681B6808
:100AE000644A934209D1644B9B69634A43F480434F
:100AF0009361FFF7C7FFF86117E07B681B685F4AE7
:100B0000934209D15C4BDB695B4A43F40033D36108
:100B1000FFF7A4FFF86108E0574BDB69564A43F43E
:100B20008023D361FFF79AFFF8617B681B68DA685E
:100B30007B681B6842F40052DA607B681B68D968E6
:100B40007B68DA687B681B680A43DA607B681B682D
:100B500019697B685A697B681B680A431A617B685C
:100B60009B681B01FA69B2FBF3F39BB2BB61BB69E3
:100B7000642202FB03F37B61FA6913469B00134472
:100B80009A001A447B689B689B00B2FBF3F27B6976
:100B9000D31A3B613B691B01394AA2FB03235B0962
:100BA000FB60BB69C3F30B03BB61FB6803F00F037E
:100BB000FB607B681B689968BB691A01FB681A4374
:100BC0007B681B680A439A607B681B68D9687B68EE
:100BD0001A697B681B680A43DA607B681B6859697D
:100BE0007B689A697B681B680A435A617B681B684B
:100BF000D9687B685A687B681B680A43DA607B683F
:100C0000DB69002B32D07B681B68D9687B68DA69A6
:100C10007B681B680A43DA607B681B68154A93424D
:100C20000AD17B681B6A174A1360174B1B68164A68
:100C300043F02003136019E07B681B680F4A93425E
:100C40000AD17B681B6A0F4A53600F4B1B680E4A20
:100C500043F04003136009E07B681B6A094A936014
:100C6000094B1B68084A43F08003136000BF20371C
:100C7000BD4680BD003801400010024000440040E5
:100C80001F85EB519C00002004E100E080B59AB084
:100C900000AF78607B681B68734A934249D17B68D8
:100CA0005B6803F00803002B0BD0704A07F1600368
:100CB00092E8030083E8030007F160031846FFF79A
:100CC00071FD7B685B6803F00403002B0BD0684A5E
:100CD00007F1580392E8030083E8030007F1580383
:100CE0001846FFF75FFD7B685B6803F40073002B19
:100CF0000BD0604A07F1500392E8030083E8030039
:100D000007F150031846FFF74DFD7B685B6803F45D
:100D10008073002B00F0A380574A07F1480392E844
:100D2000030083E8030007F148031846FFF73AFD84
:100D300095E07B681B68514A934248D17B685B68A9
:100D400003F00803002B0BD04D4A07F1400392E853
:100D5000030083E8030007F140031846FFF722FD74
:100D60007B685B6803F00403002B0BD0454A07F156
:100D7000380392E8030083E8030007F138031846BC
:100D8000FFF710FD7B685B6803F40073002B0BD04A
:100D90003D4A07F1300392E8030083E8030007F1BE
:100DA00030031846FFF7FEFC7B685B6803F4807332
:100DB000002B54D0354A07F1280392E8030083E85A
:100DC000030007F128031846FFF7ECFC47E07B68B7
:100DD0005B6803F00803002B0BD02D4A07F12003BA
:100DE00092E8030083E8030007F120031846FFF7A9
:100DF000D9FC7B685B6803F00403002B0BD0254A09
:100E000007F1180392E8030083E8030007F11803D1
:100E10001846FFF7C7FC7B685B6803F40073002B80
:100E20000BD01D4A07F1100392E8030083E803008A
:100E300007F110031846FFF7B5FC7B685B6803F405
:100E40008073002B0BD0154A07F1080392E80300CA
:100E500083E8030007F108031846FFF7A3FC00BF6F
:100E60006837BD4680BD00BF003801401013000840
:100E7000181300082013000828130008004400403D
:100E80003013000838130008401300084813000806
:100E90005013000858130008601300086813000876
:100EA00080B485B000AFF860B9601346FB71FB7980
:100EB000012B07D100BFFB681B681B6803F0800390
:100EC000002BF8D0FB68DB68B3F5805F08D1BB6806
:100ED0001B881A46FB681B68C2F308025A6006E0CA
:100EE000BB681B881A46FB681B68D2B25A6000BFF9
:100EF0001437BD4680BC704780B485B000AFF86041
:100F0000B9601346FB71FB79012B07D100BFFB6869
:100F10001B681B6803F02003002BF8D0FB68DB681C
:100F2000B3F5805F16D1FB681B69002B09D1FB6804
:100F30001B685B689BB2C3F308039AB2BB681A8054
:100F40001EE0FB681B685B689BB2DBB29AB2BB68B1
:100F50001A8015E0FB681B69002B08D1FB681B6831
:100F60005B689BB2DBB29AB2BB681A8008E0FB6890
:100F70001B685B689BB203F07F039AB2BB681A8060
:100F800000BF1437BD4680BC7047000080B500AF7D
:100F9000024B1B68984700BF80BD00BF9C0000202B
:100FA00080B500AF024B5B68984700BF80BD00BFB3
:100FB0009C00002080B500AF024B9B68984700BFA3
:100FC00080BD00BF9C00002080B500AF00F02AF873
:100FD000FEE7000080B500AF01210C48FFF7ECFCF4
:100FE00001210B48FFF7E8FC01210A48FFF7E4FC68
:100FF00001210948FFF7E0FC01210848FFF7DCFC6C
:1010000001210748FFF7D8FC00BF80BD0400002085
:101010000C000020140000201C00002024000020F0
:101020002C00002080B500AF364B01221A70354BE2
:10103000354A5A60334B02221A81324B08229A7287
:10104000304B0022DA722F4B00221A732D4B0122F3
:101050005A732C4B2D4A1A612D4B00221A702C4BBF
:101060002C4A5A602A4B01221A81294B08229A7273
:10107000274B0022DA72264B01221A73244B0122DD
:101080005A73234B244A1A61244B254A1A60234B76
:101090004FF4E1329A60214B0022DA601F4B0022AC
:1010A0001A611E4B00225A611C4B00229A611B4B95
:1010B0000C225A60194B2022DA61184B194A1A6225
:1010C0001948FFF76FFB1948FFF76CFB1848FFF74B
:1010D00069FB1848FFF766FB1748FFF763FB1748E3
:1010E000FFF760FBFFF776FF0648FFF70DF90848AA
:1010F000FFF70AF90948FFF7EDFC0848FFF7C6FDBE
:1011000000BF80BDCC00002000080140E5110008B0
:10111000E0000020000C014019120008A800002087
:101120000038014035120008040000200C000020A7
:10113000140000201C000020240000202C000020AF
:1011400080B582B000AF0346FB71FB79313B052BC4
:1011500038D801A252F823F0711100087F1100085D
:101160008D1100089B110008A9110008B711000893
:10117000FFF730FF00211548FFF71EFC22E0FFF7C4
:1011800029FF00211248FFF717FC1BE0FFF722FFA1
:1011900000211048FFF710FC14E0FFF71BFF0021AF
:1011A0000D48FFF709FC0DE0FFF714FF00210B4885
:1011B000FFF702FC06E0FFF70DFF00210848FFF7EC
:1011C000FBFB00BF00BF0837BD4680BD0400002008
:1011D0000C000020140000201C000020240000202F
:1011E0002C00002080B500AF0A4B1B8801339AB257
:1011F000084B1A80074B1B88372B02D1054B312235
:101200001A80044B1B88DBB21846FFF799FF00BF1A
:1012100080BD00BF0000002080B500AF012203495F
:101220000348FFF73DFE00BF80BD00BF0000002067
:10123000A800002080B500AF002206490648FFF74D
:101240005BFE044B1B88DBB21846FFF779FF00BF3B
:1012500080BD00BF00000020A80000200D4885468A
:10126000AFF300800C480D490D4A002302E0D4582A
:10127000C4500433C4188C42F9D30A4A0A4C0023E0
:1012800001E013600432A242FBD300F011F8FFF733
:101290009BFEFEE700280020000000203400002014
:1012A0009013000834000020F4000020FEE7000046
:1012B00070B500250C4E0D4CA41BA410A54209D1FD
:1012C00000F01AF800250A4E0A4CA41BA410A542EF
:1012D00005D170BD56F8253098470135EEE756F830
:1012E000253098470135F2E7881300088813000875
:1012F000881300088C130008F8B500BFF8BC08BCC0
:101300009E467047F8B500BFF8BC08BC9E467047C3
:101310000008014000020601000801400004080026
:101320000008014000080601000801400010080004
:101330000008014004000601000801400800080000
:1013400000080140010006010008014002000800F9
:10135000000C014000040601000C014000080800D8
:10136000000C014000200601000C01400040080074
:101370000000000001020304000000000000000063
:0813800001020304060708093D
:041388005501000803
:04138C003101000823
:1013900030000000000C014008000401000C014076
:1013A00010000401000C014020000401000C014069
:1013B00040000401000C014080000401000C0140C9
:0413C0000001040123
:040000050800125D80
:00000001FF
