S0180000447269766572735F41546D65676133322E737265633A
S11300000C942A000C94E4010C940B020C9432021C
S11300100C9447000C9447000C9447000C94470040
S11300200C9447000C9447000C9447000C94470030
S11300300C9447000C947B030C94A2030C94C90306
S11300400C9447000C9447000C9447000C94470010
S11300500C94470011241FBECFE5D8E0DEBFCDBF0E
S113006010E0A0E6B0E0E8E2F8E002C005900D92EE
S1130070A838B107D9F720E0A8E8B0E001C01D9284
S1130080A33BB207E1F70E94C6010C9412040C943E
S1130090000085E790E00E94590281E790E00E9409
S11300A059028DE690E00E94590289E690E00E9490
S11300B0590285E690E00E94590281E690E00E9490
S11300C05902089561E081E790E00E94940260E0A3
S11300D081E790E00E9494020895CF93C82F61E0D5
S11300E085E790E00E9494026C2F607170E0759532
S11300F067957595679575956795759567958DE67B
S113010090E00E9494026C2F607270E07595679580
S113011075956795759567957595679575956795C3
S113012089E690E00E9494026C2F607470E0062EC1
S1130130672F000C661F770B000C661F771F85E680
S113014090E00E9494026C2F661F6627661F81E66A
S113015090E00E9494020E9462006C2F61708DE610
S113016090E00E9494026C2F627070E07595679520
S113017089E690E00E9494026C2F647070E075959B
S113018067957595679585E690E00E949402C8701E
S11301906C2F70E07595679575956795759567955E
S11301A081E690E00E9494020E946200CF9108953B
S11301B0CF93C82F60E085E790E00E9494026C2FF3
S11301C0607170E0759567957595679575956795F8
S11301D0759567958DE690E00E9494026C2F60728D
S11301E070E075956795759567957595679575959F
S11301F067957595679589E690E00E9494026C2F47
S1130200607470E0062E672F000C661F770B000CDD
S1130210661F771F85E690E00E9494026C2F661F8C
S11302206627661F81E690E00E9494020E946200A5
S11302306C2F61708DE690E00E9494026C2F6270C6
S113024070E07595679589E690E00E9494026C2FA2
S1130250647070E0759567957595679585E690E08F
S11302600E949402C8706C2F70E07595679575951F
S113027067957595679581E690E00E9494020E94C7
S11302806200CF9108950E94490082E00E94D80044
S113029088E20E94D8008CE00E94D800089581E092
S11302A00E94D8001092880081E080936000089535
S11302B0CF93DF93C82FD62F813031F4603120F4EF
S11302C080E8860F0E94D800C23031F4D03120F487
S11302D080EC8D0F0E94D800DF91CF910895CF93C9
S11302E0C82F80918800803190F01092880080910E
S11302F06000823031F481E0809360000E944F01FD
S11303000EC08F5F8093600060E00E9458018C2FC4
S11303100E946D00809188008F5F80938800CF9148
S11303200895CF93DF93EC0103C00E946F012196DF
S113033088818111FACFDF91CF91089540E06BEA73
S113034070E089E790E00E94520341E06BEA70E0BC
S113035089E790E00E943803E0918A00AE2FB0E074
S11303608091AB009091AC00A557BF4F8C93EF5F89
S1130370E0938A000D9749F4F0E0E557FF4F1082AF
S113038010928A0081E08093890008958FB7806875
S11303908FBF8EE991E0909383008093820089E778
S11303A090E00E94AC0289E790E00E9408030E945A
S11303B04301809189008130E1F78BE890E00E944D
S11303C0910110928900F5CF1F920F920FB60F92F0
S11303D011242F933F934F935F936F937F938F9346
S11303E09F93AF93BF93EF93FF93E091AD00F09190
S11303F0AE000995FF91EF91BF91AF919F918F91BD
S11304007F916F915F914F913F912F910F900FBE0C
S11304100F901F9018951F920F920FB60F921124F0
S11304202F933F934F935F936F937F938F939F93F8
S1130430AF93BF93EF93FF93E091AF00F091B000BF
S11304400995FF91EF91BF91AF919F918F917F910A
S11304506F915F914F913F912F910F900FBE0F902D
S11304601F9018951F920F920FB60F9211242F937D
S11304703F934F935F936F937F938F939F93AF9328
S1130480BF93EF93FF93E091B100F091B20009950F
S1130490FF91EF91BF91AF919F918F917F916F9158
S11304A05F914F913F912F910F900FBE0F901F902E
S11304B01895FC0183818130C9F018F0823051F124
S11304C00895A081B18111969C91119782818095A4
S11304D0892311968C93A081B18112969C911297D5
S11304E082818095892312968C930895A081B1818D
S11304F011969C91119782818095892311968C93F2
S1130500A081B18112969C9112978281892B1296B7
S11305108C930895A081B18111969C911197828149
S1130520892B11968C930895FC01613051F4A081BC
S1130530B18112969C9112978281892B12968C9389
S11305400895A081B18112969C9112978281809521
S1130550892312968C930895CF93DF93EC0129811C
S11305603A8140E050E060E072E18AE790E00E9466
S1130570F003329522952F7023273F70232729B942
S113058030BD3B813E3071F48AB184608AB990B544
S11305908B813D812C818670832B822B892B8068F3
S11305A080BD08C090B58D812C81832B822B892B33
S11305B0806880BD9AB18881892B8AB99AB18E816D
S11305C0892B8AB99AB18F81892B8AB99AB1888586
S11305D0892B8AB98E81882331F089859A859093F5
S11305E0AE008093AD008F81882331F08B859C858C
S11305F09093B0008093AF008885882331F08D8577
S11306009E859093B2008093B100DF91CF910895BD
S11306100F931F93CF93DF9300D000D0CDB7DEB7F5
S11306208C01FC01808183FF0BC080E390E09A83FE
S1130630898382E08B838C83CE0101960E945902C8
S1130640F801808184FF0BC080E390E09A83898362
S113065081E08B831C82CE0101960E9459020F9087
S11306600F900F900F90DF91CF911F910F910895EC
S1130670413011F45D9BFECFFC0183818E3071F417
S11306808AB18E7F8AB98AB1FB0120813181222708
S11306903170832B8AB980818CB90895FB018081E4
S11306A08CB90895FC01413011F45E9BFECF9BB1DF
S11306B09C7131F08FEF9FEFDB018D939C93089534
S11306C0DB0111961C921E9283818E3071F42AB143
S11306D022702AB980E0922F969511969C938E935E
S11306E02CB1822B8D939C9308958CB190E0FB01E7
S11306F09183808308951F920F920FB60F92112455
S11307002F933F934F935F936F937F938F939F9315
S1130710AF93BF93EF93FF93E091AD00F091AE00E0
S11307200995FF91EF91BF91AF919F918F917F9127
S11307306F915F914F913F912F910F900FBE0F904A
S11307401F9018951F920F920FB60F9211242F939A
S11307503F934F935F936F937F938F939F93AF9345
S1130760BF93EF93FF93E091AF00F091B000099530
S1130770FF91EF91BF91AF919F918F917F916F9175
S11307805F914F913F912F910F900FBE0F901F904B
S113079018951F920F920FB60F9211242F933F9327
S11307A04F935F936F937F938F939F93AF93BF9375
S11307B0EF93FF93E091B100F091B2000995FF919E
S11307C0EF91BF91AF919F918F917F916F915F91C5
S11307D04F913F912F910F900FBE0F901F9018953E
S11307E0A1E21A2EAA1BBB1BFD010DC0AA1FBB1F31
S11307F0EE1FFF1FA217B307E407F50720F0A21BA3
S1130800B30BE40BF50B661F771F881F991F1A940F
S113081069F760957095809590959B01AC01BD0139
S10B0820CF010895F894FFCF05
S113082801390080023900400239002002390010E1
S113083802390002023900010218802506000080EE
S10B08480000000000000000A4
S9030000FC
