:020000040800F2
:1000000000280020ED0100083D0200083D02000824
:100010003D0200083D0200083D020008000000000B
:100020000000000000000000000000003D02000889
:100030003D020008000000003D0200083D020008EB
:100040003D0200083D0200083D0200083D02000894
:100050003D0200083D0200083D0200083D02000884
:100060003D0200083D0200083D0200083D02000874
:100070003D0200083D0200083D0200083D02000864
:100080003D0200083D0200083D0200083D02000854
:100090003D0200083D0200083D0200083D02000844
:1000A0003D0200083D0200083D0200083D02000834
:1000B0003D0200083D0200083D0200083D02000824
:1000C0003D0200083D0200083D0200083D02000814
:1000D0003D0200083D0200083D0200083D02000804
:1000E0003D0200083D020008000000003D0200083B
:1000F0003D0200083D0200083D0200083D020008E4
:100100003D0200083D0200083D0200083D020008D3
:100110003D0200083D0200083D0200083D020008C3
:100120003D0200083D0200083D0200083D020008B3
:1001300010B5054C237833B9044B13B10448AFF321
:1001400000800123237010BD040000200000000087
:100150008802000808B5034B1BB103490348AFF3FD
:10016000008008BD00000000080000208802000890
:1001700080B483B000AF194B1B68184A43F00403E6
:100180001360174B1B68164A23F470031360144B5B
:100190001B68134A43F400131360124B1A68138848
:1001A0006FF34D33138000237B6002E07B680133E3
:1001B0007B607B680C4A9342F8DD0A4B1A6813880F
:1001C00043F40053138000233B6002E03B6801339B
:1001D0003B603B68044A9342F8DDDEE718100240BA
:1001E00004080140000000208F5F01000D48854693
:1001F000AFF300800C480D490D4A002302E0D458AB
:10020000C4500433C4188C42F9D30A4A0A4C002360
:1002100001E013600432A242FBD300F011F8FFF7B3
:10022000A7FFFEE7002800200000002004000020B7
:10023000A80200080400002020000020FEE70000C3
:1002400070B500250C4E0D4CA41BA410A54209D17D
:1002500000F01AF800250A4E0A4CA41BA410A5426F
:1002600005D170BD56F8253098470135EEE756F8B0
:10027000253098470135F2E7A0020008A0020008E7
:10028000A0020008A4020008F8B500BFF8BC08BC32
:100290009E467047F8B500BFF8BC08BC9E46704744
:0402A00055010008FC
:0402A400310100081C
:0402A8000C080140FD
:04000005080001ED01
:00000001FF
