:020000040800F2
:1000000000280020210A0008710A0008710A00086F
:10001000710A0008710A0008710A00080000000057
:10002000000000000000000000000000CD080008F3
:10003000710A000800000000E1080008710A0008C9
:10004000710A0008710A0008710A0008710A0008A4
:10005000710A0008710A0008710100089501000882
:10006000B9010008DD01000801020008710A00085A
:10007000710A0008710A0008710A0008710A000874
:10008000710A0008710A0008710A0008710A000864
:10009000710A0008710A0008710A000825020008A8
:1000A000710A0008710A0008710A0008710A000844
:1000B00075030008D903000831040008890400080A
:1000C0008105000875060008710700086908000826
:1000D0007D08000891080008A5080008B908000874
:1000E000CD020008710A000800000000710A000833
:1000F000710A0008710A0008710A0008710A0008F4
:10010000710A0008710A0008710A0008710A0008E3
:10011000710A0008710A0008710A0008710A0008D3
:10012000710A0008710A0008710A0008710A0008C3
:1001300010B5054C237833B9044B13B10448AFF321
:1001400000800123237010BD00000020000000008B
:10015000BC0A000808B5034B1BB103490348AFF3C1
:10016000008008BD0000000004000020BC0A000858
:1001700080B500AF054B5B69044A43F0010353614E
:10018000034B1B68984700BF80BD00BF00040140BF
:100190001C00002080B500AF054B5B69044A43F0AA
:1001A00002035361034B5B68984700BF80BD00BFEB
:1001B000000401401C00002080B500AF054B5B69C6
:1001C000044A43F004035361034B9B68984700BF04
:1001D00080BD00BF000401401C00002080B500AFBE
:1001E000054B5B69044A43F008035361034BDB682A
:1001F000984700BF80BD00BF000401401C000020E4
:1002000080B500AF054B5B69044A43F010035361AE
:10021000034B1B69984700BF80BD00BF000401402D
:100220001C00002080B500AF264B5B6903F0200363
:10023000002B08D0234B5B69224A43F02003536113
:10024000214B5B6998471F4B5B6903F04003002B10
:1002500008D01C4B5B691B4A43F0400353611A4BA7
:100260009B699847174B5B6903F08003002B08D00C
:10027000144B5B69134A43F080035361124BDB69F3
:100280009847104B5B6903F48073002B08D00D4B2B
:100290005B690C4A43F4807353610B4B1B6A9847AC
:1002A000084B5B6903F40073002B08D0054B5B69B6
:1002B000044A43F400735361034B5B6A984700BFE1
:1002C00080BD00BF000401401C00002080B500AFCD
:1002D000264B5B6903F48063002B08D0234B5B69DA
:1002E000224A43F480635361214B9B6A98471F4B1A
:1002F0005B6903F40063002B08D01C4B5B691B4A4D
:1003000043F4006353611A4BDB6A9847174B5B69F0
:1003100003F48053002B08D0144B5B69134A43F459
:1003200080535361124B1B6B9847104B5B6903F46E
:100330000053002B08D00D4B5B690C4A43F400536B
:1003400053610B4B5B6B9847084B5B6903F480432D
:10035000002B08D0054B5B69044A43F4804353618A
:10036000034B9B6B984700BF80BD00BF000401405A
:100370001C00002080B500AF4FF080431B6903F0E4
:100380000103002B12D04FF080431B684FF08042D6
:1003900023F0010313604FF080431B694FF080424C
:1003A00023F0010313610B4B1B6898474FF0804308
:1003B0001B6903F04003002B0AD04FF080431B69F8
:1003C0004FF0804223F040031361024B1B689847B3
:1003D00000BF80BD5800002080B500AF124B1B69E4
:1003E00003F00103002B0ED00F4B1B680E4A23F0C5
:1003F000010313600C4B1B690B4A23F001031361CB
:100400000A4B5B689847084B1B6903F04003002BBD
:1004100008D0054B1B69044A23F040031361034BCA
:100420005B68984700BF80BD000400405800002072
:1004300080B500AF124B1B6903F00103002B0ED0F7
:100440000F4B1B680E4A23F0010313600C4B1B6912
:100450000B4A23F0010313610A4B9B689847084B32
:100460001B6903F04003002B08D0054B1B69044AAD
:1004700023F040031361034B9B68984700BF80BD86
:10048000000800405800002080B584B000AF002371
:100490003B60394B5B6803F40073FB60364B5B6871
:1004A00003F48063BB60344B5B6903F004037B603F
:1004B000FB68002B0AD07B68002B07D02E4B2E4AFE
:1004C0001B6813602D4B1B68042098472A4B5B69FF
:1004D00003F001037B60FB68002B0CD07B68002BD2
:1004E00009D0254B9B6903F48033002B03D1234BA8
:1004F0001B6801209847204B5B6903F007037B6072
:10050000FB68002B15D0BB68002B12D07B68002B3A
:100510000FD0194B9B6903F48033002B09D1164B84
:100520009B6903F48023002B03D0144B1B68062027
:100530009847114B5B6903F006037B60FB68002B57
:1005400015D0BB68002B12D07B68002B0FD00A4B54
:100550009B6903F48033002B09D1074B9B6903F49B
:100560008023002B03D0054B1B68052098473B6870
:1005700000BF1037BD4680BD00540040640000201D
:1005800080B582B000AF394B5B6803F480737B6049
:10059000364B5B6903F001033B603B68002B0CD0DA
:1005A0007B68002B09D0314B5B69304A23F48073A0
:1005B00053612F4B1B68002098472C4B5B6903F05D
:1005C00002033B603B68002B0CD07B68002B09D0FA
:1005D000264B5B69254A23F400735361244B1B6847
:1005E00001209847214B5B6903F004033B603B68A3
:1005F000002B0CD07B68002B09D01C4B5B691B4A7D
:1006000023F4806353611A4B1B6802209847174BF1
:100610005B6903F008033B603B68002B0CD07B68F0
:10062000002B09D0114B5B69104A23F4006353611E
:100630000F4B1B68032098470C4B5B6903F02003AA
:100640003B603B68002B0CD07B68002B09D0074B2C
:100650005B69064A23F480435361054B1B68052000
:10066000984700BF0837BD4680BD00BF005400401A
:100670006C00002080B584B000AF00233B60394B94
:100680005B6803F40073FB60364B5B6803F48063C4
:10069000BB60344B5B6903F004037B60FB68002B99
:1006A0000AD07B68002B07D02E4B2E4A1B681360A4
:1006B0002D4B1B68042098472A4B5B6903F001030C
:1006C0007B60FB68002B0CD07B68002B09D0254B8E
:1006D0009B6903F48033002B03D1234B1B6801205B
:1006E0009847204B5B6903F007037B60FB68002B96
:1006F00015D0BB68002B12D07B68002B0FD0194B94
:100700009B6903F48033002B09D1164B9B6903F4DA
:100710008023002B03D0144B1B6806209847114BF5
:100720005B6903F006037B60FB68002B15D0BB6898
:10073000002B12D07B68002B0FD00C4B9B6903F46D
:100740008033002B09D1074B9B6903F48023002BD6
:1007500003D0054B1B68052098473B6800BF103746
:10076000BD4680BD00580040680000200054004095
:1007700080B582B000AF394B5B6803F480737B6057
:10078000364B5B6903F001033B603B68002B0CD0E8
:100790007B68002B09D0314B5B69304A23F48073AE
:1007A00053612F4B1B68002098472C4B5B6903F06B
:1007B00002033B603B68002B0CD07B68002B09D008
:1007C000264B5B69254A23F400735361244B1B6855
:1007D00001209847214B5B6903F004033B603B68B1
:1007E000002B0CD07B68002B09D01E4B9B691D4A47
:1007F00023F4806393611A4B1B6802209847174BC0
:100800005B6903F008033B603B68002B0CD07B68FE
:10081000002B09D0114B5B69104A23F4006353612C
:100820000F4B1B68032098470C4B5B6903F02003B8
:100830003B603B68002B0CD07B68002B09D0074B3A
:100840005B69064A23F480435361054B1B6805200E
:10085000984700BF0837BD4680BD00BF0058004024
:10086000700000200054004080B500AF024B1B68B0
:10087000984700BF80BD00BF7400002080B500AF66
:10088000024B5B68984700BF80BD00BF740000202A
:1008900080B500AF024B1B68984700BF80BD00BF0A
:1008A0007C00002080B500AF024B5B68984700BF1A
:1008B00080BD00BF7C00002080B500AF024B9B686C
:1008C000984700BF80BD00BF7C0000201EF0040FD1
:1008D0000CBFEFF30880EFF3098000F057B800BFBA
:1008E00080B400AF00BF00BFBD4680BC70470000B1
:1008F00080B500AF01220321022000F021F802465A
:100900000E4B1A6002220321022000F019F8024661
:100910000A4B1A6003220321022000F011F802465C
:10092000064B1A6004220021002000F009F802465C
:10093000024B1A600023184680BD00BF88000020CB
:1009400080B487B000AFF860B9607A607B68013B23
:10095000032B13D801A252F823F000BF6D09000841
:1009600071090008750900087909000801DF05E030
:1009700002DF03E003DF01E004DF00BF03467B6129
:100980007B6918461C37BD4680BC704780B487B071
:1009900000AF78607B681B687B617B685B683B614C
:1009A0007B689B69FB60FB68023B1B78FB72FB7AF0
:1009B000013B032B2CD801A252F823F0CD090008EB
:1009C000D9090008F5090008030A00087A693B699B
:1009D0001A447B681A601BE07A693B699A4203DD1E
:1009E0007A693B69D31A02E03A697B69D31A7A685B
:1009F00013600DE07B693A6902FB03F27B681A60C1
:100A000006E0064B5B68054A43F08053536000BF25
:100A100000BF1C37BD4680BC704700BF00ED00E042
:100A20000D488546AFF300800C480D490D4A002360
:100A300002E0D458C4500433C4188C42F9D30A4A93
:100A40000A4C002301E013600432A242FBD300F001
:100A500011F8FFF74DFFFEE70028002000000020FE
:100A600000000020DC0A0008000000208C000020AC
:100A7000FEE7000070B500250C4E0D4CA41BA41021
:100A8000A54209D100F01AF800250A4E0A4CA41B11
:100A9000A410A54205D170BD56F825309847013500
:100AA000EEE756F8253098470135F2E7D40A0008FA
:100AB000D40A0008D40A0008D80A0008F8B500BF14
:100AC000F8BC08BC9E467047F8B500BFF8BC08BC2F
:040AD0009E46704787
:040AD40055010008C0
:040AD80031010008E0
:0400000508000A21C4
:00000001FF
