:100000000C942A000C9436000C9455000C94740047
:100010000C9434000C9434000C9434000C94340090
:100020000C9434000C9434000C9434000C94340080
:100030000C9434000C9434000C9434000C94340070
:100040000C9434000C9434000C9434000C94340060
:100050000C94340011241FBECFE5D8E0DEBFCDBF25
:100060000E94AD000C94B6000C9400001F920F92F9
:100070000FB60F9211242F938F939F9382B38062B8
:1000800082BB2FE38DE093E0215080409040E1F768
:1000900000C0000082B38F7D82BB9F918F912F9112
:1000A0000F900FBE0F901F9018951F920F920FB6D2
:1000B0000F9211242F938F939F9382B3806482BBFE
:1000C0002FE38DE093E0215080409040E1F700C0A5
:1000D000000082B38F7B82BB9F918F912F910F90F5
:1000E0000FBE0F901F9018951F920F920FB60F9290
:1000F00011242F938F939F9382B3806882BB2FE349
:100100008DE093E0215080409040E1F700C0000076
:1001100082B38F7782BB9F918F912F910F900FBEEB
:100120000F901F90189581B38B7F81BB81B3877F20
:1001300081BB87B38B7F87BB81B3806E81BB82B36A
:100140008F7182BB089585B78F6085BF84B7806447
:1001500084BF8BB7806E8BBF08950E9493000E946E
:10016000A300789482B38F7182BBFCCFF894FFCF49
:00000001FF
