:020000040800F2
:1000000000280020C90F0008191000081910000866
:10001000191000081910000819100008000000004D
:10002000000000000000000000000000191000089F
:10003000191000080000000019100008191000082D
:1000400019100008191000081910000819100008EC
:100050001910000819100008F50400081905000817
:100060003D05000861050008850500081910000815
:1000700019100008191000081910000819100008BC
:1000800019100008191000081910000819100008AC
:10009000191000081910000819100008A905000817
:1000A000191000081910000819100008191000088C
:1000B000D5090008390A0008910A0008E90A000871
:1000C000E10B0008D50C0008D10D0008C90E00088E
:1000D000DD0E0008F10E0008050F0008190F0008DA
:1000E000510600081910000800000000191000084F
:1000F000191000081910000819100008191000083C
:10010000191000081910000819100008191000082B
:10011000191000081910000819100008191000081B
:10012000191000081910000819100008191000080B
:1001300010B5054C237833B9044B13B10448AFF321
:1001400000800123237010BD00000020000000008B
:100150006410000808B5034B1BB103490348AFF313
:10016000008008BD000000000400002064100008AA
:1001700080B483B000AF0346FB71FB790F2B54D8DA
:1001800001A252F823F000BFC9010008D7010008FE
:10019000E5010008F3010008010200080F02000851
:1001A0000F0200080F0200080F0200080F020008EB
:1001B0001D0200081D0200081D0200081D020008A3
:1001C0001D0200081D0200081A4B1B68194A43F063
:1001D0004003136029E0174B1B68164A43F0800365
:1001E000136022E0134B1B68124A43F480731360C0
:1001F0001BE0104B1B680F4A43F40073136014E0BC
:100200000C4B1B680B4A43F4806313600DE0094BF1
:100210001B68084A43F40003136006E0064B1B68A2
:10022000054A43F48073136000BF00BF0C37BD461E
:1002300080BC704700E100E004E100E080B483B0DE
:1002400000AF0346FB71FB790F2B54D801A252F883
:1002500023F000BF95020008A3020008B1020008C5
:10026000BF020008CD020008DB020008DB02000824
:10027000DB020008DB020008DB020008E9020008DC
:10028000E9020008E9020008E9020008E9020008A2
:10029000E90200081A4B1B68194A43F04003136037
:1002A00029E0174B1B68164A43F08003136022E0D5
:1002B000134B1B68124A43F4807313601BE0104B0E
:1002C0001B680F4A43F40073136014E00C4B1B6867
:1002D0000B4A43F4806313600DE0094B1B68084A26
:1002E00043F40003136006E0064B1B68054A43F421
:1002F0008073136000BF00BF0C37BD4680BC7047E1
:1003000080E100E084E100E080B586B000AF786075
:100310007B685B68FB607B681B781A46012393400F
:100320009BB23B820823BB740023FB7407F10C03D0
:10033000184600F045FA7B681B789B08FB757B68C4
:100340001B7803F00303DBB29B00BB75614AFB7DA6
:10035000023352F82320BB7D0F2101FA03F3DB4364
:1003600018465C49FB7D0240023341F82320594A7C
:10037000FB7D023352F823207B685B6856498B4231
:100380001DD07B685B6855498B4216D07B685B68E3
:1003900053498B420FD07B685B6852498B4208D02F
:1003A0007B685B6850498B4201D1042308E000233D
:1003B00006E0032304E0022302E0012300E000231F
:1003C000B97D8B4018464349FB7D0243023341F817
:1003D0002320464B9B687A681278114601228A4096
:1003E000D2431146414A0B409360404BDB687A6828
:1003F0001278114601228A40D24311463B4A0B40F3
:10040000D3607B681B7A012B0FD0022B19D0002BF5
:100410002ED1364B9B687A681278114601228A40A9
:100420001146324A0B43936022E0304BDB687A6816
:100430001278114601228A4011462C4A0B43D360A0
:1004400016E02A4B9B687A681278114601228A408E
:100450001146264A0B439360244BDB687A68127876
:10046000114601228A401146204A0B43D36000BF47
:100470007B681B7819467B68DB681D4A42F821308F
:100480007B685B7A012B10D1184B1B687A68127855
:10049000114601228A401146144A0B4313607B68BF
:1004A0001B781846FFF764FE10E0104B1B687A6853
:1004B0001278114601228A40D24311460B4A0B4062
:1004C00013607B681B781846FFF7B8FE00BF18372B
:1004D000BD4680BD0000014000080140000C014005
:1004E00000100140001401400018014000040140C8
:1004F0001C00002080B500AF054B5B69044A43F047
:1005000001035361034B1B68984700BF80BD00BFC8
:10051000000401401C00002080B500AF054B5B6962
:10052000044A43F002035361034B5B68984700BFE2
:1005300080BD00BF000401401C00002080B500AF5A
:10054000054B5B69044A43F004035361034B9B680A
:10055000984700BF80BD00BF000401401C00002080
:1005600080B500AF054B5B69044A43F00803536153
:10057000034BDB68984700BF80BD00BF000401400B
:100580001C00002080B500AF054B5B69044A43F0B6
:1005900010035361034B1B69984700BF80BD00BF28
:1005A000000401401C00002080B500AF264B5B69B1
:1005B00003F02003002B08D0234B5B69224A43F051
:1005C00020035361214B5B6998471F4B5B6903F024
:1005D0004003002B08D01C4B5B691B4A43F04003CF
:1005E00053611A4B9B699847174B5B6903F0800373
:1005F000002B08D0144B5B69134A43F0800353610E
:10060000124BDB699847104B5B6903F48073002B36
:1006100008D00D4B5B690C4A43F4807353610B4B5C
:100620001B6A9847084B5B6903F40073002B08D0E2
:10063000054B5B69044A43F400735361034B5B6AE7
:10064000984700BF80BD00BF000401401C0000208F
:1006500080B500AF264B5B6903F48063002B08D0A4
:10066000234B5B69224A43F480635361214B9B6AAD
:1006700098471F4B5B6903F40063002B08D01C4BA9
:100680005B691B4A43F4006353611A4BDB6A98476A
:10069000174B5B6903F48053002B08D0144B5B6944
:1006A000134A43F480535361124B1B6B9847104B12
:1006B0005B6903F40053002B08D00D4B5B690C4AB7
:1006C00043F4005353610B4B5B6B9847084B5B69DA
:1006D00003F48043002B08D0054B5B69044A43F4C4
:1006E00080435361034B9B6B984700BF80BD00BFA5
:1006F000000401401C00002080B483B000AF03461A
:10070000FB80FB88802B42D0802B11DC082B36D05D
:10071000082B06DC022B2ED0042B2ED0012B28D048
:1007200047E0202B2FD0402B2FD0102B29D040E09A
:10073000B3F5006F33D0B3F5006F09DCB3F5007F7C
:1007400029D0B3F5806F28D0B3F5807F21D030E079
:10075000B3F5005F27D0B3F5005F03DCB3F5805F2E
:100760001FD026E0B3F5804F1FD0B3F5004F1ED049
:100770001FE000231EE004231CE008231AE00C23E2
:1007800018E0102316E0142314E0182312E01C23B1
:1007900010E000230EE004230CE008230AE00C2301
:1007A00008E0102306E0142304E0182302E01C23D1
:1007B00000E0002318460C37BD4680BC704700009F
:1007C00090B585B000AF78607B681B687A4A934229
:1007D0000DD17A4B1B78012B09D0794B9B69784A54
:1007E00043F004039361754B01221A704AE07B6861
:1007F0001B68744A93420DD1704B5B78012B09D072
:100800006F4B9B696E4A43F0080393616B4B012267
:100810005A7037E07B681B686B4A93420DD1674B77
:100820009B78012B09D0664B9B69654A43F0100306
:100830009361624B01229A7024E07B681B68634AD3
:1008400093420DD15D4BDB78012B09D05C4B9B694A
:100850005B4A43F020039361584B0122DA7011E0A8
:100860007B681B685A4A93420CD1544B1B79012B6D
:1008700008D0534B9B69524A43F0400393614F4B5E
:1008800001221A717B689B79052B08D94C4B9B6917
:100890004B4A43F001039361484B01225A710023F4
:1008A000BB607B689B88FF2B02D87B681B6802E0DB
:1008B0007B681B680433BB600023FB737B689B79F8
:1008C000032B12D97B689B79072B0ED87B689B7909
:1008D000043B9B005AB27B68DB795BB213435BB28B
:1008E000DBB203F00F03FB7336E07B689B79002BD0
:1008F00003D07B689B79012B07D17B689B799B0098
:10090000DBB203F00F03FB7326E07B689B79022BBD
:1009100003D07B689B79032B1CD10823FB737B6876
:100920009B79022B0AD17B681B68DA687B689B88FD
:1009300019467B681B680A43DA600DE07B681B6818
:10094000DA687B689B88DB4319467B681B680A4032
:10095000DA6001E00423FB737B689B881846FFF78D
:10096000CBFE03461A460F239340DA43BB681B684D
:100970001A40BB681A60FC7B7B689B881846FFF7AF
:10098000BBFE034604FA03F3DA43BB681B681A4054
:10099000BB681A60FC7B7B689B881846FFF7ACFE3F
:1009A000034604FA03F2BB681B681A43BB681A606B
:1009B00000BF1437BD4690BD00080140580000201C
:1009C00000100240000C01400010014000140140E2
:1009D0000018014080B500AF4FF080431B6903F061
:1009E0000103002B12D04FF080431B684FF0804270
:1009F00023F0010313604FF080431B694FF08042E6
:100A000023F0010313610B4B1B6898474FF08043A1
:100A10001B6903F04003002B0AD04FF080431B6991
:100A20004FF0804223F040031361024B1B6898474C
:100A300000BF80BD6000002080B500AF124B1B6975
:100A400003F00103002B0ED00F4B1B680E4A23F05E
:100A5000010313600C4B1B690B4A23F00103136164
:100A60000A4B5B689847084B1B6903F04003002B57
:100A700008D0054B1B69044A23F040031361034B64
:100A80005B68984700BF80BD000400406000002004
:100A900080B500AF124B1B6903F00103002B0ED091
:100AA0000F4B1B680E4A23F0010313600C4B1B69AC
:100AB0000B4A23F0010313610A4B9B689847084BCC
:100AC0001B6903F04003002B08D0054B1B69044A47
:100AD00023F040031361034B9B68984700BF80BD20
:100AE000000800406000002080B584B000AF002303
:100AF0003B60394B5B6803F40073FB60364B5B680B
:100B000003F48063BB60344B5B6903F004037B60D8
:100B1000FB68002B0AD07B68002B07D02E4B2E4A97
:100B20001B6813602D4B1B68042098472A4B5B6998
:100B300003F001037B60FB68002B0CD07B68002B6B
:100B400009D0254B9B6903F48033002B03D1234B41
:100B50001B6801209847204B5B6903F007037B600B
:100B6000FB68002B15D0BB68002B12D07B68002BD4
:100B70000FD0194B9B6903F48033002B09D1164B1E
:100B80009B6903F48023002B03D0144B1B680620C1
:100B90009847114B5B6903F006037B60FB68002BF1
:100BA00015D0BB68002B12D07B68002B0FD00A4BEE
:100BB0009B6903F48033002B09D1074B9B6903F435
:100BC0008023002B03D0054B1B68052098473B680A
:100BD00000BF1037BD4680BD005400406C000020AF
:100BE00080B582B000AF394B5B6803F480737B60E3
:100BF000364B5B6903F001033B603B68002B0CD074
:100C00007B68002B09D0314B5B69304A23F4807339
:100C100053612F4B1B68002098472C4B5B6903F0F6
:100C200002033B603B68002B0CD07B68002B09D093
:100C3000264B5B69254A23F400735361244B1B68E0
:100C400001209847214B5B6903F004033B603B683C
:100C5000002B0CD07B68002B09D01C4B5B691B4A16
:100C600023F4806353611A4B1B6802209847174B8B
:100C70005B6903F008033B603B68002B0CD07B688A
:100C8000002B09D0114B5B69104A23F400635361B8
:100C90000F4B1B68032098470C4B5B6903F0200344
:100CA0003B603B68002B0CD07B68002B09D0074BC6
:100CB0005B69064A23F480435361054B1B6805209A
:100CC000984700BF0837BD4680BD00BF00540040B4
:100CD0007400002080B584B000AF00233B60394B26
:100CE0005B6803F40073FB60364B5B6803F480635E
:100CF000BB60344B5B6903F004037B60FB68002B33
:100D00000AD07B68002B07D02E4B2E4A1B6813603D
:100D10002D4B1B68042098472A4B5B6903F00103A5
:100D20007B60FB68002B0CD07B68002B09D0254B27
:100D30009B6903F48033002B03D1234B1B680120F4
:100D40009847204B5B6903F007037B60FB68002B2F
:100D500015D0BB68002B12D07B68002B0FD0194B2D
:100D60009B6903F48033002B09D1164B9B6903F474
:100D70008023002B03D0144B1B6806209847114B8F
:100D80005B6903F006037B60FB68002B15D0BB6832
:100D9000002B12D07B68002B0FD00C4B9B6903F407
:100DA0008033002B09D1074B9B6903F48023002B70
:100DB00003D0054B1B68052098473B6800BF1037E0
:100DC000BD4680BD00580040700000200054004027
:100DD00080B582B000AF394B5B6803F480737B60F1
:100DE000364B5B6903F001033B603B68002B0CD082
:100DF0007B68002B09D0314B5B69304A23F4807348
:100E000053612F4B1B68002098472C4B5B6903F004
:100E100002033B603B68002B0CD07B68002B09D0A1
:100E2000264B5B69254A23F400735361244B1B68EE
:100E300001209847214B5B6903F004033B603B684A
:100E4000002B0CD07B68002B09D01E4B9B691D4AE0
:100E500023F4806393611A4B1B6802209847174B59
:100E60005B6903F008033B603B68002B0CD07B6898
:100E7000002B09D0114B5B69104A23F400635361C6
:100E80000F4B1B68032098470C4B5B6903F0200352
:100E90003B603B68002B0CD07B68002B09D0074BD4
:100EA0005B69064A23F480435361054B1B680520A8
:100EB000984700BF0837BD4680BD00BF00580040BE
:100EC000780000200054004080B500AF024B1B6842
:100ED000984700BF80BD00BF7C00002080B500AFF8
:100EE000024B5B68984700BF80BD00BF7C000020BC
:100EF00080B500AF024B1B68984700BF80BD00BFA4
:100F00008400002080B500AF024B5B68984700BFAB
:100F100080BD00BF8400002080B500AF024B9B68FD
:100F2000984700BF80BD00BF8400002080B483B01C
:100F300000AF0346FB71FB79002B02D0012B09D0D7
:100F40000FE0EFF314834FEA53034FEA430383F3B5
:100F5000148806E0EFF3148343F0010383F314884D
:100F600000BF00BF0C37BD4680BC704780B500AFE6
:100F7000034B01221A700020FFF7D8FF00BF80BD8D
:100F80009000002080B584B000AF0C4B7B6009233B
:100F90003B7001237B7200233B72094BFB603B4695
:100FA0001846FFF7B1F90120FFF7C0FF054B1B788A
:100FB000002BFBD0034B00221A70F7E7000C014016
:100FC0006D0F0008900000200D488546AFF30080AB
:100FD0000C480D490D4A002302E0D458C450043394
:100FE000C4188C42F9D30A4A0A4C002301E013606A
:100FF0000432A242FBD300F011F8FFF7C3FFFEE773
:1010000000280020000000200000002084100008BC
:101010000000002094000020FEE7000070B50025CD
:101020000C4E0D4CA41BA410A54209D100F01AF8D7
:1010300000250A4E0A4CA41BA410A54205D170BD80
:1010400056F8253098470135EEE756F82530984791
:101050000135F2E77C1000087C1000087C100008C5
:1010600080100008F8B500BFF8BC08BC9E46704769
:0C107000F8B500BFF8BC08BC9E467047F5
:04107C005501000812
:041080003101000832
:0400000508000FC917
:00000001FF
